{"abi":[{"type":"constructor","inputs":[{"name":"_eid","type":"uint32","internalType":"uint32"},{"name":"_owner","type":"address","internalType":"address"}],"stateMutability":"nonpayable"},{"type":"function","name":"burn","inputs":[{"name":"_oapp","type":"address","internalType":"address"},{"name":"_srcEid","type":"uint32","internalType":"uint32"},{"name":"_sender","type":"bytes32","internalType":"bytes32"},{"name":"_nonce","type":"uint64","internalType":"uint64"},{"name":"_payloadHash","type":"bytes32","internalType":"bytes32"}],"outputs":[],"stateMutability":"nonpayable"},{"type":"function","name":"clear","inputs":[{"name":"_oapp","type":"address","internalType":"address"},{"name":"_origin","type":"tuple","internalType":"struct Origin","components":[{"name":"srcEid","type":"uint32","internalType":"uint32"},{"name":"sender","type":"bytes32","internalType":"bytes32"},{"name":"nonce","type":"uint64","internalType":"uint64"}]},{"name":"_guid","type":"bytes32","internalType":"bytes32"},{"name":"_message","type":"bytes","internalType":"bytes"}],"outputs":[],"stateMutability":"nonpayable"},{"type":"function","name":"composeQueue","inputs":[{"name":"_from","type":"address","internalType":"address"},{"name":"_to","type":"address","internalType":"address"},{"name":"_guid","type":"bytes32","internalType":"bytes32"},{"name":"_index","type":"uint16","internalType":"uint16"}],"outputs":[{"name":"","type":"bytes32","internalType":"bytes32"}],"stateMutability":"view"},{"type":"function","name":"defaultReceiveLibrary","inputs":[{"name":"_eid","type":"uint32","internalType":"uint32"}],"outputs":[{"name":"","type":"address","internalType":"address"}],"stateMutability":"view"},{"type":"function","name":"defaultReceiveLibraryTimeout","inputs":[{"name":"_eid","type":"uint32","internalType":"uint32"}],"outputs":[{"name":"lib","type":"address","internalType":"address"},{"name":"expiry","type":"uint256","internalType":"uint256"}],"stateMutability":"view"},{"type":"function","name":"defaultSendLibrary","inputs":[{"name":"_eid","type":"uint32","internalType":"uint32"}],"outputs":[{"name":"","type":"address","internalType":"address"}],"stateMutability":"view"},{"type":"function","name":"delegate","inputs":[],"outputs":[{"name":"","type":"address","internalType":"address"}],"stateMutability":"view"},{"type":"function","name":"eid","inputs":[],"outputs":[{"name":"","type":"uint32","internalType":"uint32"}],"stateMutability":"view"},{"type":"function","name":"getConfig","inputs":[{"name":"_oapp","type":"address","internalType":"address"},{"name":"_lib","type":"address","internalType":"address"},{"name":"_eid","type":"uint32","internalType":"uint32"},{"name":"_configType","type":"uint32","internalType":"uint32"}],"outputs":[{"name":"","type":"bytes","internalType":"bytes"}],"stateMutability":"view"},{"type":"function","name":"getContentOnlyToken","inputs":[],"outputs":[{"name":"","type":"address","internalType":"address"}],"stateMutability":"view"},{"type":"function","name":"getReceiveLibrary","inputs":[{"name":"_receiver","type":"address","internalType":"address"},{"name":"_srcEid","type":"uint32","internalType":"uint32"}],"outputs":[{"name":"","type":"address","internalType":"address"},{"name":"","type":"bool","internalType":"bool"}],"stateMutability":"view"},{"type":"function","name":"getRegisteredLibraries","inputs":[],"outputs":[{"name":"","type":"address[]","internalType":"address[]"}],"stateMutability":"view"},{"type":"function","name":"getSendContext","inputs":[],"outputs":[{"name":"dstEid","type":"uint32","internalType":"uint32"},{"name":"sender","type":"address","internalType":"address"}],"stateMutability":"view"},{"type":"function","name":"getSendLibrary","inputs":[{"name":"_sender","type":"address","internalType":"address"},{"name":"_dstEid","type":"uint32","internalType":"uint32"}],"outputs":[{"name":"","type":"address","internalType":"address"}],"stateMutability":"view"},{"type":"function","name":"inboundNonce","inputs":[{"name":"_receiver","type":"address","internalType":"address"},{"name":"_srcEid","type":"uint32","internalType":"uint32"},{"name":"_sender","type":"bytes32","internalType":"bytes32"}],"outputs":[{"name":"","type":"uint64","internalType":"uint64"}],"stateMutability":"view"},{"type":"function","name":"inboundPayloadHash","inputs":[{"name":"_receiver","type":"address","internalType":"address"},{"name":"_srcEid","type":"uint32","internalType":"uint32"},{"name":"_sender","type":"bytes32","internalType":"bytes32"},{"name":"_nonce","type":"uint64","internalType":"uint64"}],"outputs":[{"name":"","type":"bytes32","internalType":"bytes32"}],"stateMutability":"view"},{"type":"function","name":"initializable","inputs":[{"name":"_origin","type":"tuple","internalType":"struct Origin","components":[{"name":"srcEid","type":"uint32","internalType":"uint32"},{"name":"sender","type":"bytes32","internalType":"bytes32"},{"name":"nonce","type":"uint64","internalType":"uint64"}]},{"name":"_receiver","type":"address","internalType":"address"}],"outputs":[{"name":"","type":"bool","internalType":"bool"}],"stateMutability":"view"},{"type":"function","name":"isDefaultSendLibrary","inputs":[{"name":"_sender","type":"address","internalType":"address"},{"name":"_eid","type":"uint32","internalType":"uint32"}],"outputs":[{"name":"","type":"bool","internalType":"bool"}],"stateMutability":"view"},{"type":"function","name":"isRegisteredLibrary","inputs":[{"name":"_lib","type":"address","internalType":"address"}],"outputs":[{"name":"","type":"bool","internalType":"bool"}],"stateMutability":"view"},{"type":"function","name":"isSendingMessage","inputs":[],"outputs":[{"name":"","type":"bool","internalType":"bool"}],"stateMutability":"view"},{"type":"function","name":"isSupportedEid","inputs":[{"name":"_eid","type":"uint32","internalType":"uint32"}],"outputs":[{"name":"","type":"bool","internalType":"bool"}],"stateMutability":"view"},{"type":"function","name":"isValidReceiveLibrary","inputs":[{"name":"_receiver","type":"address","internalType":"address"},{"name":"_eid","type":"uint32","internalType":"uint32"},{"name":"_lib","type":"address","internalType":"address"}],"outputs":[{"name":"","type":"bool","internalType":"bool"}],"stateMutability":"view"},{"type":"function","name":"lazyInboundNonce","inputs":[{"name":"_receiver","type":"address","internalType":"address"},{"name":"_srcEid","type":"uint32","internalType":"uint32"},{"name":"_sender","type":"bytes32","internalType":"bytes32"}],"outputs":[{"name":"","type":"uint64","internalType":"uint64"}],"stateMutability":"view"},{"type":"function","name":"lzCompose","inputs":[{"name":"_from","type":"address","internalType":"address"},{"name":"_to","type":"address","internalType":"address"},{"name":"_guid","type":"bytes32","internalType":"bytes32"},{"name":"_index","type":"uint16","internalType":"uint16"},{"name":"_message","type":"bytes","internalType":"bytes"},{"name":"_extraData","type":"bytes","internalType":"bytes"}],"outputs":[],"stateMutability":"payable"},{"type":"function","name":"lzReceive","inputs":[{"name":"_origin","type":"tuple","internalType":"struct Origin","components":[{"name":"srcEid","type":"uint32","internalType":"uint32"},{"name":"sender","type":"bytes32","internalType":"bytes32"},{"name":"nonce","type":"uint64","internalType":"uint64"}]},{"name":"_receiver","type":"address","internalType":"address"},{"name":"_guid","type":"bytes32","internalType":"bytes32"},{"name":"_message","type":"bytes","internalType":"bytes"},{"name":"_extraData","type":"bytes","internalType":"bytes"}],"outputs":[],"stateMutability":"payable"},{"type":"function","name":"lzToken","inputs":[],"outputs":[{"name":"","type":"address","internalType":"address"}],"stateMutability":"view"},{"type":"function","name":"nativeToken","inputs":[],"outputs":[{"name":"","type":"address","internalType":"address"}],"stateMutability":"view"},{"type":"function","name":"nextGuid","inputs":[{"name":"_sender","type":"address","internalType":"address"},{"name":"_dstEid","type":"uint32","internalType":"uint32"},{"name":"_receiver","type":"bytes32","internalType":"bytes32"}],"outputs":[{"name":"","type":"bytes32","internalType":"bytes32"}],"stateMutability":"view"},{"type":"function","name":"nilify","inputs":[{"name":"_oapp","type":"address","internalType":"address"},{"name":"_srcEid","type":"uint32","internalType":"uint32"},{"name":"_sender","type":"bytes32","internalType":"bytes32"},{"name":"_nonce","type":"uint64","internalType":"uint64"},{"name":"_payloadHash","type":"bytes32","internalType":"bytes32"}],"outputs":[],"stateMutability":"nonpayable"},{"type":"function","name":"outboundNonce","inputs":[{"name":"_sender","type":"address","internalType":"address"},{"name":"_dstEid","type":"uint32","internalType":"uint32"},{"name":"_receiver","type":"bytes32","internalType":"bytes32"}],"outputs":[{"name":"","type":"uint64","internalType":"uint64"}],"stateMutability":"view"},{"type":"function","name":"quote","inputs":[{"name":"_params","type":"tuple","internalType":"struct MessagingParams","components":[{"name":"dstEid","type":"uint32","internalType":"uint32"},{"name":"receiver","type":"bytes32","internalType":"bytes32"},{"name":"message","type":"bytes","internalType":"bytes"},{"name":"options","type":"bytes","internalType":"bytes"},{"name":"payInLzToken","type":"bool","internalType":"bool"}]},{"name":"_sender","type":"address","internalType":"address"}],"outputs":[{"name":"","type":"tuple","internalType":"struct MessagingFee","components":[{"name":"nativeFee","type":"uint256","internalType":"uint256"},{"name":"lzTokenFee","type":"uint256","internalType":"uint256"}]}],"stateMutability":"view"},{"type":"function","name":"receiveLibraryTimeout","inputs":[{"name":"_receiver","type":"address","internalType":"address"},{"name":"_eid","type":"uint32","internalType":"uint32"}],"outputs":[{"name":"lib","type":"address","internalType":"address"},{"name":"expiry","type":"uint256","internalType":"uint256"}],"stateMutability":"view"},{"type":"function","name":"registerLibrary","inputs":[{"name":"_lib","type":"address","internalType":"address"}],"outputs":[],"stateMutability":"nonpayable"},{"type":"function","name":"send","inputs":[{"name":"_params","type":"tuple","internalType":"struct MessagingParams","components":[{"name":"dstEid","type":"uint32","internalType":"uint32"},{"name":"receiver","type":"bytes32","internalType":"bytes32"},{"name":"message","type":"bytes","internalType":"bytes"},{"name":"options","type":"bytes","internalType":"bytes"},{"name":"payInLzToken","type":"bool","internalType":"bool"}]},{"name":"_refundAddress","type":"address","internalType":"address"}],"outputs":[{"name":"","type":"tuple","internalType":"struct MessagingReceipt","components":[{"name":"guid","type":"bytes32","internalType":"bytes32"},{"name":"nonce","type":"uint64","internalType":"uint64"},{"name":"fee","type":"tuple","internalType":"struct MessagingFee","components":[{"name":"nativeFee","type":"uint256","internalType":"uint256"},{"name":"lzTokenFee","type":"uint256","internalType":"uint256"}]}]}],"stateMutability":"payable"},{"type":"function","name":"sendCompose","inputs":[{"name":"_to","type":"address","internalType":"address"},{"name":"_guid","type":"bytes32","internalType":"bytes32"},{"name":"_index","type":"uint16","internalType":"uint16"},{"name":"_message","type":"bytes","internalType":"bytes"}],"outputs":[],"stateMutability":"nonpayable"},{"type":"function","name":"setConfig","inputs":[{"name":"_oapp","type":"address","internalType":"address"},{"name":"_lib","type":"address","internalType":"address"},{"name":"_params","type":"tuple[]","internalType":"struct SetConfigParam[]","components":[{"name":"eid","type":"uint32","internalType":"uint32"},{"name":"configType","type":"uint32","internalType":"uint32"},{"name":"config","type":"bytes","internalType":"bytes"}]}],"outputs":[],"stateMutability":"nonpayable"},{"type":"function","name":"setDefaultReceiveLibrary","inputs":[{"name":"_eid","type":"uint32","internalType":"uint32"},{"name":"_newLib","type":"address","internalType":"address"},{"name":"_gracePeriod","type":"uint256","internalType":"uint256"}],"outputs":[],"stateMutability":"nonpayable"},{"type":"function","name":"setDefaultReceiveLibraryTimeout","inputs":[{"name":"_eid","type":"uint32","internalType":"uint32"},{"name":"_lib","type":"address","internalType":"address"},{"name":"_expiry","type":"uint256","internalType":"uint256"}],"outputs":[],"stateMutability":"nonpayable"},{"type":"function","name":"setDefaultSendLibrary","inputs":[{"name":"_eid","type":"uint32","internalType":"uint32"},{"name":"_newLib","type":"address","internalType":"address"}],"outputs":[],"stateMutability":"nonpayable"},{"type":"function","name":"setDelegate","inputs":[{"name":"_delegate","type":"address","internalType":"address"}],"outputs":[],"stateMutability":"nonpayable"},{"type":"function","name":"setLzToken","inputs":[{"name":"_lzToken","type":"address","internalType":"address"}],"outputs":[],"stateMutability":"nonpayable"},{"type":"function","name":"setReceiveLibrary","inputs":[{"name":"_oapp","type":"address","internalType":"address"},{"name":"_eid","type":"uint32","internalType":"uint32"},{"name":"_newLib","type":"address","internalType":"address"},{"name":"_gracePeriod","type":"uint256","internalType":"uint256"}],"outputs":[],"stateMutability":"nonpayable"},{"type":"function","name":"setReceiveLibraryTimeout","inputs":[{"name":"_oapp","type":"address","internalType":"address"},{"name":"_eid","type":"uint32","internalType":"uint32"},{"name":"_lib","type":"address","internalType":"address"},{"name":"_expiry","type":"uint256","internalType":"uint256"}],"outputs":[],"stateMutability":"nonpayable"},{"type":"function","name":"setSendLibrary","inputs":[{"name":"_oapp","type":"address","internalType":"address"},{"name":"_eid","type":"uint32","internalType":"uint32"},{"name":"_newLib","type":"address","internalType":"address"}],"outputs":[],"stateMutability":"nonpayable"},{"type":"function","name":"skip","inputs":[{"name":"_oapp","type":"address","internalType":"address"},{"name":"_srcEid","type":"uint32","internalType":"uint32"},{"name":"_sender","type":"bytes32","internalType":"bytes32"},{"name":"_nonce","type":"uint64","internalType":"uint64"}],"outputs":[],"stateMutability":"nonpayable"},{"type":"function","name":"verifiable","inputs":[{"name":"_origin","type":"tuple","internalType":"struct Origin","components":[{"name":"srcEid","type":"uint32","internalType":"uint32"},{"name":"sender","type":"bytes32","internalType":"bytes32"},{"name":"nonce","type":"uint64","internalType":"uint64"}]},{"name":"_receiver","type":"address","internalType":"address"}],"outputs":[{"name":"","type":"bool","internalType":"bool"}],"stateMutability":"view"},{"type":"function","name":"verify","inputs":[{"name":"_origin","type":"tuple","internalType":"struct Origin","components":[{"name":"srcEid","type":"uint32","internalType":"uint32"},{"name":"sender","type":"bytes32","internalType":"bytes32"},{"name":"nonce","type":"uint64","internalType":"uint64"}]},{"name":"_receiver","type":"address","internalType":"address"},{"name":"_payloadHash","type":"bytes32","internalType":"bytes32"}],"outputs":[],"stateMutability":"nonpayable"},{"type":"event","name":"ComposeDelivered","inputs":[{"name":"from","type":"address","indexed":false,"internalType":"address"},{"name":"to","type":"address","indexed":false,"internalType":"address"},{"name":"guid","type":"bytes32","indexed":false,"internalType":"bytes32"},{"name":"index","type":"uint16","indexed":false,"internalType":"uint16"}],"anonymous":false},{"type":"event","name":"ComposeSent","inputs":[{"name":"from","type":"address","indexed":false,"internalType":"address"},{"name":"to","type":"address","indexed":false,"internalType":"address"},{"name":"guid","type":"bytes32","indexed":false,"internalType":"bytes32"},{"name":"index","type":"uint16","indexed":false,"internalType":"uint16"},{"name":"message","type":"bytes","indexed":false,"internalType":"bytes"}],"anonymous":false},{"type":"event","name":"DefaultReceiveLibrarySet","inputs":[{"name":"eid","type":"uint32","indexed":false,"internalType":"uint32"},{"name":"newLib","type":"address","indexed":false,"internalType":"address"}],"anonymous":false},{"type":"event","name":"DefaultReceiveLibraryTimeoutSet","inputs":[{"name":"eid","type":"uint32","indexed":false,"internalType":"uint32"},{"name":"oldLib","type":"address","indexed":false,"internalType":"address"},{"name":"expiry","type":"uint256","indexed":false,"internalType":"uint256"}],"anonymous":false},{"type":"event","name":"DefaultSendLibrarySet","inputs":[{"name":"eid","type":"uint32","indexed":false,"internalType":"uint32"},{"name":"newLib","type":"address","indexed":false,"internalType":"address"}],"anonymous":false},{"type":"event","name":"DelegateSet","inputs":[{"name":"sender","type":"address","indexed":false,"internalType":"address"},{"name":"delegate","type":"address","indexed":false,"internalType":"address"}],"anonymous":false},{"type":"event","name":"InboundNonceSkipped","inputs":[{"name":"srcEid","type":"uint32","indexed":false,"internalType":"uint32"},{"name":"sender","type":"bytes32","indexed":false,"internalType":"bytes32"},{"name":"receiver","type":"address","indexed":false,"internalType":"address"},{"name":"nonce","type":"uint64","indexed":false,"internalType":"uint64"}],"anonymous":false},{"type":"event","name":"LibraryRegistered","inputs":[{"name":"newLib","type":"address","indexed":false,"internalType":"address"}],"anonymous":false},{"type":"event","name":"LzComposeAlert","inputs":[{"name":"from","type":"address","indexed":true,"internalType":"address"},{"name":"to","type":"address","indexed":true,"internalType":"address"},{"name":"executor","type":"address","indexed":true,"internalType":"address"},{"name":"guid","type":"bytes32","indexed":false,"internalType":"bytes32"},{"name":"index","type":"uint16","indexed":false,"internalType":"uint16"},{"name":"gas","type":"uint256","indexed":false,"internalType":"uint256"},{"name":"value","type":"uint256","indexed":false,"internalType":"uint256"},{"name":"message","type":"bytes","indexed":false,"internalType":"bytes"},{"name":"extraData","type":"bytes","indexed":false,"internalType":"bytes"},{"name":"reason","type":"bytes","indexed":false,"internalType":"bytes"}],"anonymous":false},{"type":"event","name":"LzReceiveAlert","inputs":[{"name":"receiver","type":"address","indexed":true,"internalType":"address"},{"name":"executor","type":"address","indexed":true,"internalType":"address"},{"name":"origin","type":"tuple","indexed":false,"internalType":"struct Origin","components":[{"name":"srcEid","type":"uint32","internalType":"uint32"},{"name":"sender","type":"bytes32","internalType":"bytes32"},{"name":"nonce","type":"uint64","internalType":"uint64"}]},{"name":"guid","type":"bytes32","indexed":false,"internalType":"bytes32"},{"name":"gas","type":"uint256","indexed":false,"internalType":"uint256"},{"name":"value","type":"uint256","indexed":false,"internalType":"uint256"},{"name":"message","type":"bytes","indexed":false,"internalType":"bytes"},{"name":"extraData","type":"bytes","indexed":false,"internalType":"bytes"},{"name":"reason","type":"bytes","indexed":false,"internalType":"bytes"}],"anonymous":false},{"type":"event","name":"LzTokenSet","inputs":[{"name":"token","type":"address","indexed":false,"internalType":"address"}],"anonymous":false},{"type":"event","name":"PacketBurnt","inputs":[{"name":"srcEid","type":"uint32","indexed":false,"internalType":"uint32"},{"name":"sender","type":"bytes32","indexed":false,"internalType":"bytes32"},{"name":"receiver","type":"address","indexed":false,"internalType":"address"},{"name":"nonce","type":"uint64","indexed":false,"internalType":"uint64"},{"name":"payloadHash","type":"bytes32","indexed":false,"internalType":"bytes32"}],"anonymous":false},{"type":"event","name":"PacketDelivered","inputs":[{"name":"origin","type":"tuple","indexed":false,"internalType":"struct Origin","components":[{"name":"srcEid","type":"uint32","internalType":"uint32"},{"name":"sender","type":"bytes32","internalType":"bytes32"},{"name":"nonce","type":"uint64","internalType":"uint64"}]},{"name":"receiver","type":"address","indexed":false,"internalType":"address"}],"anonymous":false},{"type":"event","name":"PacketNilified","inputs":[{"name":"srcEid","type":"uint32","indexed":false,"internalType":"uint32"},{"name":"sender","type":"bytes32","indexed":false,"internalType":"bytes32"},{"name":"receiver","type":"address","indexed":false,"internalType":"address"},{"name":"nonce","type":"uint64","indexed":false,"internalType":"uint64"},{"name":"payloadHash","type":"bytes32","indexed":false,"internalType":"bytes32"}],"anonymous":false},{"type":"event","name":"PacketSent","inputs":[{"name":"encodedPayload","type":"bytes","indexed":false,"internalType":"bytes"},{"name":"options","type":"bytes","indexed":false,"internalType":"bytes"},{"name":"sendLibrary","type":"address","indexed":false,"internalType":"address"}],"anonymous":false},{"type":"event","name":"PacketVerified","inputs":[{"name":"origin","type":"tuple","indexed":false,"internalType":"struct Origin","components":[{"name":"srcEid","type":"uint32","internalType":"uint32"},{"name":"sender","type":"bytes32","internalType":"bytes32"},{"name":"nonce","type":"uint64","internalType":"uint64"}]},{"name":"receiver","type":"address","indexed":false,"internalType":"address"},{"name":"payloadHash","type":"bytes32","indexed":false,"internalType":"bytes32"}],"anonymous":false},{"type":"event","name":"ReceiveLibrarySet","inputs":[{"name":"receiver","type":"address","indexed":false,"internalType":"address"},{"name":"eid","type":"uint32","indexed":false,"internalType":"uint32"},{"name":"newLib","type":"address","indexed":false,"internalType":"address"}],"anonymous":false},{"type":"event","name":"ReceiveLibraryTimeoutSet","inputs":[{"name":"receiver","type":"address","indexed":false,"internalType":"address"},{"name":"eid","type":"uint32","indexed":false,"internalType":"uint32"},{"name":"oldLib","type":"address","indexed":false,"internalType":"address"},{"name":"timeout","type":"uint256","indexed":false,"internalType":"uint256"}],"anonymous":false},{"type":"event","name":"SendLibrarySet","inputs":[{"name":"sender","type":"address","indexed":false,"internalType":"address"},{"name":"eid","type":"uint32","indexed":false,"internalType":"uint32"},{"name":"newLib","type":"address","indexed":false,"internalType":"address"}],"anonymous":false}],"bytecode":{"object":"0x608060405234801561000f575f5ffd5b50604051611e3c380380611e3c833981810160405281019061003191906100ef565b815f60146101000a81548163ffffffff021916908363ffffffff160217905550505061012d565b5f5ffd5b5f63ffffffff82169050919050565b6100748161005c565b811461007e575f5ffd5b50565b5f8151905061008f8161006b565b92915050565b5f73ffffffffffffffffffffffffffffffffffffffff82169050919050565b5f6100be82610095565b9050919050565b6100ce816100b4565b81146100d8575f5ffd5b50565b5f815190506100e9816100c5565b92915050565b5f5f6040838503121561010557610104610058565b5b5f61011285828601610081565b9250506020610123858286016100db565b9150509250929050565b611d028061013a5f395ff3fe608060405260043610610287575f3560e01c80639c6d734011610159578063ca5eb5e1116100c0578063ddc28c5811610079578063ddc28c5814610a46578063e1758bd814610a82578063e4fe1d9414610aac578063e8964e8114610ad6578063ef667aa114610afe578063f64be4c714610b3b57610287565b8063ca5eb5e11461092c578063ccf926df14610954578063d4b4ec8f1461097e578063d70b8902146109a6578063dc706a62146109ce578063dc93c8a214610a0a57610287565b8063aafea31211610112578063aafea312146107fe578063b96a277f14610826578063c28e0eed14610862578063c89e43611461088a578063c9a54a99146108b4578063c9fc7bcd146108f057610287565b80639c6d7340146106be5780639d7f9775146106fa578063a0dd43fc14610736578063a718531b14610772578063a825d7471461079a578063aafe5e07146107c257610287565b80635b17bb70116101fd57806379624ca9116101b657806379624ca9146105c25780637cb59012146105ec578063861e1ca5146106145780639132e5c31461065057806391d20fa11461067a5780639535ff301461069657610287565b80635b17bb70146104815780636750cd4c146104bd5780636a14d715146104f95780636dbd9f90146105215780636e83f5bb146105495780636f50a8031461058657610287565b80632b3197b91161024f5780632b3197b9146103525780632e80fbf31461038e57806335d330b0146103b6578063402f8468146103f257806340f806831461042f578063416ecebf1461045757610287565b80630c0c389e1461028b57806314f651a9146102a7578063183c834f146102d25780632637a450146102fa5780632a56c1b01461032a575b5f5ffd5b6102a560048036038101906102a09190610fea565b610b77565b005b3480156102b2575f5ffd5b506102bb610b80565b6040516102c99291906110ce565b60405180910390f35b3480156102dd575f5ffd5b506102f860048036038101906102f39190611152565b610b8c565b005b610314600480360381019061030f91906111d4565b610b92565b60405161032191906112db565b60405180910390f35b348015610335575f5ffd5b50610350600480360381019061034b91906112f4565b610bdd565b005b34801561035d575f5ffd5b5061037860048036038101906103739190611378565b610be4565b604051610385919061144c565b60405180910390f35b348015610399575f5ffd5b506103b460048036038101906103af9190611496565b610bff565b005b3480156103c1575f5ffd5b506103dc60048036038101906103d79190611544565b610c06565b6040516103e991906115b7565b60405180910390f35b3480156103fd575f5ffd5b50610418600480360381019061041391906115d0565b610c14565b604051610426929190611628565b60405180910390f35b34801561043a575f5ffd5b5061045560048036038101906104509190611496565b610c24565b005b348015610462575f5ffd5b5061046b610c2b565b604051610478919061164f565b60405180910390f35b34801561048c575f5ffd5b506104a760048036038101906104a29190611668565b610c40565b6040516104b491906116c7565b60405180910390f35b3480156104c8575f5ffd5b506104e360048036038101906104de91906116e0565b610c4b565b6040516104f0919061170b565b60405180910390f35b348015610504575f5ffd5b5061051f600480360381019061051a9190611152565b610c55565b005b34801561052c575f5ffd5b5061054760048036038101906105429190611779565b610c5b565b005b348015610554575f5ffd5b5061056f600480360381019061056a91906116e0565b610c61565b60405161057d9291906117f9565b60405180910390f35b348015610591575f5ffd5b506105ac60048036038101906105a791906116e0565b610c6e565b6040516105b99190611820565b60405180910390f35b3480156105cd575f5ffd5b506105d6610c77565b6040516105e3919061170b565b60405180910390f35b3480156105f7575f5ffd5b50610612600480360381019061060d9190611839565b610c7e565b005b34801561061f575f5ffd5b5061063a600480360381019061063591906118bd565b610c85565b604051610647919061170b565b60405180910390f35b34801561065b575f5ffd5b50610664610c90565b60405161067191906119b2565b60405180910390f35b610694600480360381019061068f91906119d2565b610ce0565b005b3480156106a1575f5ffd5b506106bc60048036038101906106b79190611a9c565b610cea565b005b3480156106c9575f5ffd5b506106e460048036038101906106df9190611668565b610cef565b6040516106f191906116c7565b60405180910390f35b348015610705575f5ffd5b50610720600480360381019061071b9190611a9c565b610cfa565b60405161072d919061170b565b60405180910390f35b348015610741575f5ffd5b5061075c60048036038101906107579190611668565b610d06565b60405161076991906116c7565b60405180910390f35b34801561077d575f5ffd5b5061079860048036038101906107939190611aec565b610d11565b005b3480156107a5575f5ffd5b506107c060048036038101906107bb9190611b3c565b610d16565b005b3480156107cd575f5ffd5b506107e860048036038101906107e39190611668565b610d1b565b6040516107f591906115b7565b60405180910390f35b348015610809575f5ffd5b50610824600480360381019061081f9190611b8c565b610d28565b005b348015610831575f5ffd5b5061084c600480360381019061084791906115d0565b610d2c565b6040516108599190611820565b60405180910390f35b34801561086d575f5ffd5b5061088860048036038101906108839190611bca565b610d36565b005b348015610895575f5ffd5b5061089e610d79565b6040516108ab9190611820565b60405180910390f35b3480156108bf575f5ffd5b506108da60048036038101906108d591906118bd565b610d9d565b6040516108e7919061170b565b60405180910390f35b3480156108fb575f5ffd5b5061091660048036038101906109119190611bf5565b610da8565b60405161092391906115b7565b60405180910390f35b348015610937575f5ffd5b50610952600480360381019061094d9190611bca565b610db6565b005b34801561095f575f5ffd5b50610968610df8565b6040516109759190611820565b60405180910390f35b348015610989575f5ffd5b506109a4600480360381019061099f9190611aec565b610dff565b005b3480156109b1575f5ffd5b506109cc60048036038101906109c79190611bf5565b610e04565b005b3480156109d9575f5ffd5b506109f460048036038101906109ef9190611bca565b610e0a565b604051610a01919061170b565b60405180910390f35b348015610a15575f5ffd5b50610a306004803603810190610a2b91906115d0565b610e14565b604051610a3d919061170b565b60405180910390f35b348015610a51575f5ffd5b50610a6c6004803603810190610a6791906111d4565b610e1f565b604051610a799190611c86565b60405180910390f35b348015610a8d575f5ffd5b50610a96610e44565b604051610aa39190611820565b60405180910390f35b348015610ab7575f5ffd5b50610ac0610e4b565b604051610acd9190611820565b60405180910390f35b348015610ae1575f5ffd5b50610afc6004803603810190610af79190611bca565b610e70565b005b348015610b09575f5ffd5b50610b246004803603810190610b1f91906115d0565b610e73565b604051610b329291906117f9565b60405180910390f35b348015610b46575f5ffd5b50610b616004803603810190610b5c91906116e0565b610e82565b604051610b6e9190611820565b60405180910390f35b50505050505050565b5f5f5f5f915091509091565b50505050565b610b9a610e8b565b60405180606001604052805f5f1b81526020015f67ffffffffffffffff16815260200160405180604001604052805f81526020015f815250815250905092915050565b5050505050565b606060405180602001604052805f8152509050949350505050565b5050505050565b5f5f5f1b9050949350505050565b5f5f5f6001915091509250929050565b5050505050565b5f60149054906101000a900463ffffffff1681565b5f5f90509392505050565b5f60019050919050565b50505050565b50505050565b5f5f5f5f91509150915091565b5f5f9050919050565b5f5f905090565b5050505050565b5f6001905092915050565b60605f67ffffffffffffffff811115610cac57610cab611c9f565b5b604051908082528060200260200182016040528015610cda5781602001602082028036833780820191505090505b50905090565b5050505050505050565b505050565b5f5f90509392505050565b5f600190509392505050565b5f5f90509392505050565b505050565b505050565b5f5f5f1b90509392505050565b5050565b5f5f905092915050565b8060015f6101000a81548173ffffffffffffffffffffffffffffffffffffffff021916908373ffffffffffffffffffffffffffffffffffffffff16021790555050565b5f5f9054906101000a900473ffffffffffffffffffffffffffffffffffffffff1681565b5f6001905092915050565b5f5f5f1b9050949350505050565b805f5f6101000a81548173ffffffffffffffffffffffffffffffffffffffff021916908373ffffffffffffffffffffffffffffffffffffffff16021790555050565b5f5f905090565b505050565b50505050565b5f60019050919050565b5f6001905092915050565b610e27610eba565b60405180604001604052805f81526020015f815250905092915050565b5f5f905090565b60015f9054906101000a900473ffffffffffffffffffffffffffffffffffffffff1681565b50565b5f5f5f5f915091509250929050565b5f5f9050919050565b60405180606001604052805f81526020015f67ffffffffffffffff168152602001610eb4610eba565b81525090565b60405180604001604052805f81526020015f81525090565b5f5ffd5b5f5ffd5b5f5ffd5b5f60608284031215610ef357610ef2610eda565b5b81905092915050565b5f73ffffffffffffffffffffffffffffffffffffffff82169050919050565b5f610f2582610efc565b9050919050565b610f3581610f1b565b8114610f3f575f5ffd5b50565b5f81359050610f5081610f2c565b92915050565b5f819050919050565b610f6881610f56565b8114610f72575f5ffd5b50565b5f81359050610f8381610f5f565b92915050565b5f5ffd5b5f5ffd5b5f5ffd5b5f5f83601f840112610faa57610fa9610f89565b5b8235905067ffffffffffffffff811115610fc757610fc6610f8d565b5b602083019150836001820283011115610fe357610fe2610f91565b5b9250929050565b5f5f5f5f5f5f5f60e0888a03121561100557611004610ed2565b5b5f6110128a828b01610ede565b97505060606110238a828b01610f42565b96505060806110348a828b01610f75565b95505060a088013567ffffffffffffffff81111561105557611054610ed6565b5b6110618a828b01610f95565b945094505060c088013567ffffffffffffffff81111561108457611083610ed6565b5b6110908a828b01610f95565b925092505092959891949750929550565b5f63ffffffff82169050919050565b6110b9816110a1565b82525050565b6110c881610f1b565b82525050565b5f6040820190506110e15f8301856110b0565b6110ee60208301846110bf565b9392505050565b6110fe816110a1565b8114611108575f5ffd5b50565b5f81359050611119816110f5565b92915050565b5f819050919050565b6111318161111f565b811461113b575f5ffd5b50565b5f8135905061114c81611128565b92915050565b5f5f5f5f6080858703121561116a57611169610ed2565b5b5f61117787828801610f42565b94505060206111888782880161110b565b935050604061119987828801610f42565b92505060606111aa8782880161113e565b91505092959194509250565b5f60a082840312156111cb576111ca610eda565b5b81905092915050565b5f5f604083850312156111ea576111e9610ed2565b5b5f83013567ffffffffffffffff81111561120757611206610ed6565b5b611213858286016111b6565b925050602061122485828601610f42565b9150509250929050565b61123781610f56565b82525050565b5f67ffffffffffffffff82169050919050565b6112598161123d565b82525050565b6112688161111f565b82525050565b604082015f8201516112825f85018261125f565b506020820151611295602085018261125f565b50505050565b608082015f8201516112af5f85018261122e565b5060208201516112c26020850182611250565b5060408201516112d5604085018261126e565b50505050565b5f6080820190506112ee5f83018461129b565b92915050565b5f5f5f5f5f60c0868803121561130d5761130c610ed2565b5b5f61131a88828901610f42565b955050602061132b88828901610ede565b945050608061133c88828901610f75565b93505060a086013567ffffffffffffffff81111561135d5761135c610ed6565b5b61136988828901610f95565b92509250509295509295909350565b5f5f5f5f608085870312156113905761138f610ed2565b5b5f61139d87828801610f42565b94505060206113ae87828801610f42565b93505060406113bf8782880161110b565b92505060606113d08782880161110b565b91505092959194509250565b5f81519050919050565b5f82825260208201905092915050565b8281835e5f83830152505050565b5f601f19601f8301169050919050565b5f61141e826113dc565b61142881856113e6565b93506114388185602086016113f6565b61144181611404565b840191505092915050565b5f6020820190508181035f8301526114648184611414565b905092915050565b6114758161123d565b811461147f575f5ffd5b50565b5f813590506114908161146c565b92915050565b5f5f5f5f5f60a086880312156114af576114ae610ed2565b5b5f6114bc88828901610f42565b95505060206114cd8882890161110b565b94505060406114de88828901610f75565b93505060606114ef88828901611482565b925050608061150088828901610f75565b9150509295509295909350565b5f61ffff82169050919050565b6115238161150d565b811461152d575f5ffd5b50565b5f8135905061153e8161151a565b92915050565b5f5f5f5f6080858703121561155c5761155b610ed2565b5b5f61156987828801610f42565b945050602061157a87828801610f42565b935050604061158b87828801610f75565b925050606061159c87828801611530565b91505092959194509250565b6115b181610f56565b82525050565b5f6020820190506115ca5f8301846115a8565b92915050565b5f5f604083850312156115e6576115e5610ed2565b5b5f6115f385828601610f42565b92505060206116048582860161110b565b9150509250929050565b5f8115159050919050565b6116228161160e565b82525050565b5f60408201905061163b5f8301856110bf565b6116486020830184611619565b9392505050565b5f6020820190506116625f8301846110b0565b92915050565b5f5f5f6060848603121561167f5761167e610ed2565b5b5f61168c86828701610f42565b935050602061169d8682870161110b565b92505060406116ae86828701610f75565b9150509250925092565b6116c18161123d565b82525050565b5f6020820190506116da5f8301846116b8565b92915050565b5f602082840312156116f5576116f4610ed2565b5b5f6117028482850161110b565b91505092915050565b5f60208201905061171e5f830184611619565b92915050565b5f5f83601f84011261173957611738610f89565b5b8235905067ffffffffffffffff81111561175657611755610f8d565b5b60208301915083602082028301111561177257611771610f91565b5b9250929050565b5f5f5f5f6060858703121561179157611790610ed2565b5b5f61179e87828801610f42565b94505060206117af87828801610f42565b935050604085013567ffffffffffffffff8111156117d0576117cf610ed6565b5b6117dc87828801611724565b925092505092959194509250565b6117f38161111f565b82525050565b5f60408201905061180c5f8301856110bf565b61181960208301846117ea565b9392505050565b5f6020820190506118335f8301846110bf565b92915050565b5f5f5f5f5f6080868803121561185257611851610ed2565b5b5f61185f88828901610f42565b955050602061187088828901610f75565b945050604061188188828901611530565b935050606086013567ffffffffffffffff8111156118a2576118a1610ed6565b5b6118ae88828901610f95565b92509250509295509295909350565b5f5f608083850312156118d3576118d2610ed2565b5b5f6118e085828601610ede565b92505060606118f185828601610f42565b9150509250929050565b5f81519050919050565b5f82825260208201905092915050565b5f819050602082019050919050565b61192d81610f1b565b82525050565b5f61193e8383611924565b60208301905092915050565b5f602082019050919050565b5f611960826118fb565b61196a8185611905565b935061197583611915565b805f5b838110156119a557815161198c8882611933565b97506119978361194a565b925050600181019050611978565b5085935050505092915050565b5f6020820190508181035f8301526119ca8184611956565b905092915050565b5f5f5f5f5f5f5f5f60c0898b0312156119ee576119ed610ed2565b5b5f6119fb8b828c01610f42565b9850506020611a0c8b828c01610f42565b9750506040611a1d8b828c01610f75565b9650506060611a2e8b828c01611530565b955050608089013567ffffffffffffffff811115611a4f57611a4e610ed6565b5b611a5b8b828c01610f95565b945094505060a089013567ffffffffffffffff811115611a7e57611a7d610ed6565b5b611a8a8b828c01610f95565b92509250509295985092959890939650565b5f5f5f60608486031215611ab357611ab2610ed2565b5b5f611ac086828701610f42565b9350506020611ad18682870161110b565b9250506040611ae286828701610f42565b9150509250925092565b5f5f5f60608486031215611b0357611b02610ed2565b5b5f611b108682870161110b565b9350506020611b2186828701610f42565b9250506040611b328682870161113e565b9150509250925092565b5f5f5f60a08486031215611b5357611b52610ed2565b5b5f611b6086828701610ede565b9350506060611b7186828701610f42565b9250506080611b8286828701610f75565b9150509250925092565b5f5f60408385031215611ba257611ba1610ed2565b5b5f611baf8582860161110b565b9250506020611bc085828601610f42565b9150509250929050565b5f60208284031215611bdf57611bde610ed2565b5b5f611bec84828501610f42565b91505092915050565b5f5f5f5f60808587031215611c0d57611c0c610ed2565b5b5f611c1a87828801610f42565b9450506020611c2b8782880161110b565b9350506040611c3c87828801610f75565b9250506060611c4d87828801611482565b91505092959194509250565b604082015f820151611c6d5f85018261125f565b506020820151611c80602085018261125f565b50505050565b5f604082019050611c995f830184611c59565b92915050565b7f4e487b71000000000000000000000000000000000000000000000000000000005f52604160045260245ffdfea2646970667358221220d4abc626566d25b06dd4710732575e6fa9decd0c414e7995b33807f061bc0bfe64736f6c634300081e0033","linkReferences":{}},"methodIdentifiers":{"burn(address,uint32,bytes32,uint64,bytes32)":"40f80683","clear(address,(uint32,bytes32,uint64),bytes32,bytes)":"2a56c1b0","composeQueue(address,address,bytes32,uint16)":"35d330b0","defaultReceiveLibrary(uint32)":"6f50a803","defaultReceiveLibraryTimeout(uint32)":"6e83f5bb","defaultSendLibrary(uint32)":"f64be4c7","delegate()":"c89e4361","eid()":"416ecebf","getConfig(address,address,uint32,uint32)":"2b3197b9","getContentOnlyToken()":"ccf926df","getReceiveLibrary(address,uint32)":"402f8468","getRegisteredLibraries()":"9132e5c3","getSendContext()":"14f651a9","getSendLibrary(address,uint32)":"b96a277f","inboundNonce(address,uint32,bytes32)":"a0dd43fc","inboundPayloadHash(address,uint32,bytes32,uint64)":"c9fc7bcd","initializable((uint32,bytes32,uint64),address)":"861e1ca5","isDefaultSendLibrary(address,uint32)":"dc93c8a2","isRegisteredLibrary(address)":"dc706a62","isSendingMessage()":"79624ca9","isSupportedEid(uint32)":"6750cd4c","isValidReceiveLibrary(address,uint32,address)":"9d7f9775","lazyInboundNonce(address,uint32,bytes32)":"5b17bb70","lzCompose(address,address,bytes32,uint16,bytes,bytes)":"91d20fa1","lzReceive((uint32,bytes32,uint64),address,bytes32,bytes,bytes)":"0c0c389e","lzToken()":"e4fe1d94","nativeToken()":"e1758bd8","nextGuid(address,uint32,bytes32)":"aafe5e07","nilify(address,uint32,bytes32,uint64,bytes32)":"2e80fbf3","outboundNonce(address,uint32,bytes32)":"9c6d7340","quote((uint32,bytes32,bytes,bytes,bool),address)":"ddc28c58","receiveLibraryTimeout(address,uint32)":"ef667aa1","registerLibrary(address)":"e8964e81","send((uint32,bytes32,bytes,bytes,bool),address)":"2637a450","sendCompose(address,bytes32,uint16,bytes)":"7cb59012","setConfig(address,address,(uint32,uint32,bytes)[])":"6dbd9f90","setDefaultReceiveLibrary(uint32,address,uint256)":"a718531b","setDefaultReceiveLibraryTimeout(uint32,address,uint256)":"d4b4ec8f","setDefaultSendLibrary(uint32,address)":"aafea312","setDelegate(address)":"ca5eb5e1","setLzToken(address)":"c28e0eed","setReceiveLibrary(address,uint32,address,uint256)":"6a14d715","setReceiveLibraryTimeout(address,uint32,address,uint256)":"183c834f","setSendLibrary(address,uint32,address)":"9535ff30","skip(address,uint32,bytes32,uint64)":"d70b8902","verifiable((uint32,bytes32,uint64),address)":"c9a54a99","verify((uint32,bytes32,uint64),address,bytes32)":"a825d747"},"id":42}