{"abi":[{"type":"constructor","inputs":[{"name":"_endpoint","type":"address","internalType":"address"},{"name":"_delegate","type":"address","internalType":"address"}],"stateMutability":"nonpayable"},{"type":"function","name":"allowInitializePath","inputs":[{"name":"origin","type":"tuple","internalType":"struct Origin","components":[{"name":"srcEid","type":"uint32","internalType":"uint32"},{"name":"sender","type":"bytes32","internalType":"bytes32"},{"name":"nonce","type":"uint64","internalType":"uint64"}]}],"outputs":[{"name":"","type":"bool","internalType":"bool"}],"stateMutability":"view"},{"type":"function","name":"endpoint","inputs":[],"outputs":[{"name":"","type":"address","internalType":"contract ILayerZeroEndpointV2"}],"stateMutability":"view"},{"type":"function","name":"identities","inputs":[{"name":"","type":"address","internalType":"address"}],"outputs":[{"name":"dna","type":"bytes32","internalType":"bytes32"},{"name":"pseudonym","type":"string","internalType":"string"},{"name":"level","type":"uint256","internalType":"uint256"},{"name":"lastUpdate","type":"uint256","internalType":"uint256"}],"stateMutability":"view"},{"type":"function","name":"isComposeMsgSender","inputs":[{"name":"","type":"tuple","internalType":"struct Origin","components":[{"name":"srcEid","type":"uint32","internalType":"uint32"},{"name":"sender","type":"bytes32","internalType":"bytes32"},{"name":"nonce","type":"uint64","internalType":"uint64"}]},{"name":"","type":"bytes","internalType":"bytes"},{"name":"_sender","type":"address","internalType":"address"}],"outputs":[{"name":"","type":"bool","internalType":"bool"}],"stateMutability":"view"},{"type":"function","name":"lzReceive","inputs":[{"name":"_origin","type":"tuple","internalType":"struct Origin","components":[{"name":"srcEid","type":"uint32","internalType":"uint32"},{"name":"sender","type":"bytes32","internalType":"bytes32"},{"name":"nonce","type":"uint64","internalType":"uint64"}]},{"name":"_guid","type":"bytes32","internalType":"bytes32"},{"name":"_message","type":"bytes","internalType":"bytes"},{"name":"_executor","type":"address","internalType":"address"},{"name":"_extraData","type":"bytes","internalType":"bytes"}],"outputs":[],"stateMutability":"payable"},{"type":"function","name":"mintIdentity","inputs":[{"name":"_pseudonym","type":"string","internalType":"string"}],"outputs":[],"stateMutability":"nonpayable"},{"type":"function","name":"nextNonce","inputs":[{"name":"","type":"uint32","internalType":"uint32"},{"name":"","type":"bytes32","internalType":"bytes32"}],"outputs":[{"name":"nonce","type":"uint64","internalType":"uint64"}],"stateMutability":"view"},{"type":"function","name":"oAppVersion","inputs":[],"outputs":[{"name":"senderVersion","type":"uint64","internalType":"uint64"},{"name":"receiverVersion","type":"uint64","internalType":"uint64"}],"stateMutability":"pure"},{"type":"function","name":"owner","inputs":[],"outputs":[{"name":"","type":"address","internalType":"address"}],"stateMutability":"view"},{"type":"function","name":"peers","inputs":[{"name":"eid","type":"uint32","internalType":"uint32"}],"outputs":[{"name":"peer","type":"bytes32","internalType":"bytes32"}],"stateMutability":"view"},{"type":"function","name":"renounceOwnership","inputs":[],"outputs":[],"stateMutability":"nonpayable"},{"type":"function","name":"setDelegate","inputs":[{"name":"_delegate","type":"address","internalType":"address"}],"outputs":[],"stateMutability":"nonpayable"},{"type":"function","name":"setPeer","inputs":[{"name":"_eid","type":"uint32","internalType":"uint32"},{"name":"_peer","type":"bytes32","internalType":"bytes32"}],"outputs":[],"stateMutability":"nonpayable"},{"type":"function","name":"train","inputs":[{"name":"_dstEid","type":"uint32","internalType":"uint32"},{"name":"_options","type":"bytes","internalType":"bytes"}],"outputs":[],"stateMutability":"payable"},{"type":"function","name":"transferOwnership","inputs":[{"name":"newOwner","type":"address","internalType":"address"}],"outputs":[],"stateMutability":"nonpayable"},{"type":"event","name":"IdentityCreated","inputs":[{"name":"user","type":"address","indexed":true,"internalType":"address"},{"name":"dna","type":"bytes32","indexed":false,"internalType":"bytes32"}],"anonymous":false},{"type":"event","name":"LevelUp","inputs":[{"name":"user","type":"address","indexed":true,"internalType":"address"},{"name":"newLevel","type":"uint256","indexed":false,"internalType":"uint256"},{"name":"source","type":"string","indexed":false,"internalType":"string"}],"anonymous":false},{"type":"event","name":"OwnershipTransferred","inputs":[{"name":"previousOwner","type":"address","indexed":true,"internalType":"address"},{"name":"newOwner","type":"address","indexed":true,"internalType":"address"}],"anonymous":false},{"type":"event","name":"PeerSet","inputs":[{"name":"eid","type":"uint32","indexed":false,"internalType":"uint32"},{"name":"peer","type":"bytes32","indexed":false,"internalType":"bytes32"}],"anonymous":false},{"type":"error","name":"InvalidDelegate","inputs":[]},{"type":"error","name":"InvalidEndpointCall","inputs":[]},{"type":"error","name":"LzTokenUnavailable","inputs":[]},{"type":"error","name":"NoPeer","inputs":[{"name":"eid","type":"uint32","internalType":"uint32"}]},{"type":"error","name":"NotEnoughNative","inputs":[{"name":"msgValue","type":"uint256","internalType":"uint256"}]},{"type":"error","name":"OnlyEndpoint","inputs":[{"name":"addr","type":"address","internalType":"address"}]},{"type":"error","name":"OnlyPeer","inputs":[{"name":"eid","type":"uint32","internalType":"uint32"},{"name":"sender","type":"bytes32","internalType":"bytes32"}]},{"type":"error","name":"OwnableInvalidOwner","inputs":[{"name":"owner","type":"address","internalType":"address"}]},{"type":"error","name":"OwnableUnauthorizedAccount","inputs":[{"name":"account","type":"address","internalType":"address"}]},{"type":"error","name":"SafeERC20FailedOperation","inputs":[{"name":"token","type":"address","internalType":"address"}]}],"bytecode":{"object":"0x60a060405234801561000f575f5ffd5b506040516127f23803806127f2833981810160405281019061003191906102e1565b81818181845f73ffffffffffffffffffffffffffffffffffffffff168173ffffffffffffffffffffffffffffffffffffffff16036100a6575f6040517f1e4fbdf700000000000000000000000000000000000000000000000000000000815260040161009d919061032e565b60405180910390fd5b6100b5816101c260201b60201c565b508173ffffffffffffffffffffffffffffffffffffffff1660808173ffffffffffffffffffffffffffffffffffffffff16815250505f73ffffffffffffffffffffffffffffffffffffffff168173ffffffffffffffffffffffffffffffffffffffff160361014f576040517fb586360400000000000000000000000000000000000000000000000000000000815260040160405180910390fd5b60805173ffffffffffffffffffffffffffffffffffffffff1663ca5eb5e1826040518263ffffffff1660e01b815260040161018a919061032e565b5f604051808303815f87803b1580156101a1575f5ffd5b505af11580156101b3573d5f5f3e3d5ffd5b50505050505050505050610347565b5f5f5f9054906101000a900473ffffffffffffffffffffffffffffffffffffffff169050815f5f6101000a81548173ffffffffffffffffffffffffffffffffffffffff021916908373ffffffffffffffffffffffffffffffffffffffff1602179055508173ffffffffffffffffffffffffffffffffffffffff168173ffffffffffffffffffffffffffffffffffffffff167f8be0079c531659141344cd1fd0a4f28419497f9722a3daafe3b4186f6b6457e060405160405180910390a35050565b5f5ffd5b5f73ffffffffffffffffffffffffffffffffffffffff82169050919050565b5f6102b082610287565b9050919050565b6102c0816102a6565b81146102ca575f5ffd5b50565b5f815190506102db816102b7565b92915050565b5f5f604083850312156102f7576102f6610283565b5b5f610304858286016102cd565b9250506020610315858286016102cd565b9150509250929050565b610328816102a6565b82525050565b5f6020820190506103415f83018461031f565b92915050565b6080516124706103825f395f81816103a0015281816108e1015281816109a001528181610eae015281816110a901526111a101526124705ff3fe6080604052600436106100e7575f3560e01c80637d25a05e11610089578063ca5eb5e111610058578063ca5eb5e1146102bc578063f2fde38b146102e4578063f653b81e1461030c578063ff7bd03d1461034b576100e7565b80637d25a05e146101de57806382413eac1461021a5780638da5cb5b14610256578063bb0b6a5314610280576100e7565b80633400288b116100c55780633400288b1461015a5780634156be4f146101825780635e280f111461019e578063715018a6146101c8576100e7565b806313137d65146100eb57806317442b70146101075780631c453c6514610132575b5f5ffd5b61010560048036038101906101009190611471565b610387565b005b348015610112575f5ffd5b5061011b6104a7565b60405161012992919061154a565b60405180910390f35b34801561013d575f5ffd5b50610158600480360381019061015391906116a9565b6104b5565b005b348015610165575f5ffd5b50610180600480360381019061017b9190611729565b61064c565b005b61019c60048036038101906101979190611767565b610662565b005b3480156101a9575f5ffd5b506101b26108df565b6040516101bf919061181f565b60405180910390f35b3480156101d3575f5ffd5b506101dc610903565b005b3480156101e9575f5ffd5b5061020460048036038101906101ff9190611729565b610916565b6040516102119190611838565b60405180910390f35b348015610225575f5ffd5b50610240600480360381019061023b9190611851565b610920565b60405161024d91906118dc565b60405180910390f35b348015610261575f5ffd5b5061026a61095a565b6040516102779190611904565b60405180910390f35b34801561028b575f5ffd5b506102a660048036038101906102a1919061191d565b610981565b6040516102b39190611957565b60405180910390f35b3480156102c7575f5ffd5b506102e260048036038101906102dd9190611970565b610996565b005b3480156102ef575f5ffd5b5061030a60048036038101906103059190611970565b610a27565b005b348015610317575f5ffd5b50610332600480360381019061032d9190611970565b610aab565b6040516103429493929190611a13565b60405180910390f35b348015610356575f5ffd5b50610371600480360381019061036c9190611a5d565b610b5d565b60405161037e91906118dc565b60405180910390f35b3373ffffffffffffffffffffffffffffffffffffffff167f000000000000000000000000000000000000000000000000000000000000000073ffffffffffffffffffffffffffffffffffffffff161461041757336040517f91ac5e4f00000000000000000000000000000000000000000000000000000000815260040161040e9190611904565b60405180910390fd5b8660200135610436885f016020810190610431919061191d565b610b9a565b1461048f57865f01602081019061044d919061191d565b87602001356040517fc26bebcc000000000000000000000000000000000000000000000000000000008152600401610486929190611a97565b60405180910390fd5b61049e87878787878787610c0b565b50505050505050565b5f5f60016002915091509091565b5f5f1b60025f3373ffffffffffffffffffffffffffffffffffffffff1673ffffffffffffffffffffffffffffffffffffffff1681526020019081526020015f205f015414610538576040517f08c379a000000000000000000000000000000000000000000000000000000000815260040161052f90611b08565b60405180910390fd5b5f42338360405160200161054e93929190611bc5565b6040516020818303038152906040528051906020012090506040518060800160405280828152602001838152602001600181526020014281525060025f3373ffffffffffffffffffffffffffffffffffffffff1673ffffffffffffffffffffffffffffffffffffffff1681526020019081526020015f205f820151815f015560208201518160010190816105e29190611df1565b5060408201518160020155606082015181600301559050503373ffffffffffffffffffffffffffffffffffffffff167fc57bc26436cd8a34f73d087e078b8b500467ab264f8aab6e1afaafa5978483fd826040516106409190611957565b60405180910390a25050565b610654610d95565b61065e8282610e1c565b5050565b5f5f1b60025f3373ffffffffffffffffffffffffffffffffffffffff1673ffffffffffffffffffffffffffffffffffffffff1681526020019081526020015f205f0154036106e5576040517f08c379a00000000000000000000000000000000000000000000000000000000081526004016106dc90611f0a565b60405180910390fd5b600160025f3373ffffffffffffffffffffffffffffffffffffffff1673ffffffffffffffffffffffffffffffffffffffff1681526020019081526020015f206002015f8282546107359190611f55565b925050819055504260025f3373ffffffffffffffffffffffffffffffffffffffff1673ffffffffffffffffffffffffffffffffffffffff1681526020019081526020015f20600301819055503373ffffffffffffffffffffffffffffffffffffffff167f2552a679a3be9d4ed48257326a2eb9abda660b3b0c707295b50376865904bfc160025f3373ffffffffffffffffffffffffffffffffffffffff1673ffffffffffffffffffffffffffffffffffffffff1681526020019081526020015f20600201546040516108079190611fd2565b60405180910390a25f3360025f3373ffffffffffffffffffffffffffffffffffffffff1673ffffffffffffffffffffffffffffffffffffffff1681526020019081526020015f2060020154604051602001610863929190611ffe565b60405160208183030381529060405290506108d8848285858080601f0160208091040260200160405190810160405280939291908181526020018383808284375f81840152601f19601f8201169050808301925050505050505060405180604001604052803481526020015f81525033610e7b565b5050505050565b7f000000000000000000000000000000000000000000000000000000000000000081565b61090b610d95565b6109145f610f91565b565b5f5f905092915050565b5f3073ffffffffffffffffffffffffffffffffffffffff168273ffffffffffffffffffffffffffffffffffffffff16149050949350505050565b5f5f5f9054906101000a900473ffffffffffffffffffffffffffffffffffffffff16905090565b6001602052805f5260405f205f915090505481565b61099e610d95565b7f000000000000000000000000000000000000000000000000000000000000000073ffffffffffffffffffffffffffffffffffffffff1663ca5eb5e1826040518263ffffffff1660e01b81526004016109f79190611904565b5f604051808303815f87803b158015610a0e575f5ffd5b505af1158015610a20573d5f5f3e3d5ffd5b5050505050565b610a2f610d95565b5f73ffffffffffffffffffffffffffffffffffffffff168173ffffffffffffffffffffffffffffffffffffffff1603610a9f575f6040517f1e4fbdf7000000000000000000000000000000000000000000000000000000008152600401610a969190611904565b60405180910390fd5b610aa881610f91565b50565b6002602052805f5260405f205f91509050805f015490806001018054610ad090611c2a565b80601f0160208091040260200160405190810160405280929190818152602001828054610afc90611c2a565b8015610b475780601f10610b1e57610100808354040283529160200191610b47565b820191905f5260205f20905b815481529060010190602001808311610b2a57829003601f168201915b5050505050908060020154908060030154905084565b5f816020013560015f845f016020810190610b78919061191d565b63ffffffff1663ffffffff1681526020019081526020015f2054149050919050565b5f5f60015f8463ffffffff1663ffffffff1681526020019081526020015f205490505f5f1b8103610c0257826040517ff6ff4fb7000000000000000000000000000000000000000000000000000000008152600401610bf99190612025565b60405180910390fd5b80915050919050565b5f5f8686810190610c1c91906120a3565b915091505f5f1b60025f8473ffffffffffffffffffffffffffffffffffffffff1673ffffffffffffffffffffffffffffffffffffffff1681526020019081526020015f205f015414610d8a5760025f8373ffffffffffffffffffffffffffffffffffffffff1673ffffffffffffffffffffffffffffffffffffffff1681526020019081526020015f2060020154811115610d89578060025f8473ffffffffffffffffffffffffffffffffffffffff1673ffffffffffffffffffffffffffffffffffffffff1681526020019081526020015f20600201819055504260025f8473ffffffffffffffffffffffffffffffffffffffff1673ffffffffffffffffffffffffffffffffffffffff1681526020019081526020015f20600301819055508173ffffffffffffffffffffffffffffffffffffffff167f2552a679a3be9d4ed48257326a2eb9abda660b3b0c707295b50376865904bfc182604051610d80919061212b565b60405180910390a25b5b505050505050505050565b610d9d611052565b73ffffffffffffffffffffffffffffffffffffffff16610dbb61095a565b73ffffffffffffffffffffffffffffffffffffffff1614610e1a57610dde611052565b6040517f118cdaa7000000000000000000000000000000000000000000000000000000008152600401610e119190611904565b60405180910390fd5b565b8060015f8463ffffffff1663ffffffff1681526020019081526020015f20819055507f238399d427b947898edb290f5ff0f9109849b1c3ba196a42e35f00c50a54b98b8282604051610e6f929190611a97565b60405180910390a15050565b610e83611309565b5f610e90845f0151611059565b90505f84602001511115610eac57610eab84602001516110a6565b5b7f000000000000000000000000000000000000000000000000000000000000000073ffffffffffffffffffffffffffffffffffffffff16632637a450826040518060a001604052808b63ffffffff168152602001610f098c610b9a565b81526020018a81526020018981526020015f8960200151111515815250866040518463ffffffff1660e01b8152600401610f44929190612250565b60806040518083038185885af1158015610f60573d5f5f3e3d5ffd5b50505050506040513d601f19601f82011682018060405250810190610f859190612382565b91505095945050505050565b5f5f5f9054906101000a900473ffffffffffffffffffffffffffffffffffffffff169050815f5f6101000a81548173ffffffffffffffffffffffffffffffffffffffff021916908373ffffffffffffffffffffffffffffffffffffffff1602179055508173ffffffffffffffffffffffffffffffffffffffff168173ffffffffffffffffffffffffffffffffffffffff167f8be0079c531659141344cd1fd0a4f28419497f9722a3daafe3b4186f6b6457e060405160405180910390a35050565b5f33905090565b5f81341461109e57346040517f9f70412000000000000000000000000000000000000000000000000000000000815260040161109591906123ad565b60405180910390fd5b819050919050565b5f7f000000000000000000000000000000000000000000000000000000000000000073ffffffffffffffffffffffffffffffffffffffff1663e4fe1d946040518163ffffffff1660e01b8152600401602060405180830381865afa158015611110573d5f5f3e3d5ffd5b505050506040513d601f19601f8201168201806040525081019061113491906123da565b90505f73ffffffffffffffffffffffffffffffffffffffff168173ffffffffffffffffffffffffffffffffffffffff160361119b576040517f5373352a00000000000000000000000000000000000000000000000000000000815260040160405180910390fd5b6111e8337f0000000000000000000000000000000000000000000000000000000000000000848473ffffffffffffffffffffffffffffffffffffffff166111ec909392919063ffffffff16565b5050565b611268848573ffffffffffffffffffffffffffffffffffffffff166323b872dd86868660405160240161122193929190612405565b604051602081830303815290604052915060e01b6020820180517bffffffffffffffffffffffffffffffffffffffffffffffffffffffff838183161783525050505061126e565b50505050565b5f5f60205f8451602086015f885af18061128d576040513d5f823e3d81fd5b3d92505f519150505f82146112a65760018114156112c1565b5f8473ffffffffffffffffffffffffffffffffffffffff163b145b1561130357836040517f5274afe70000000000000000000000000000000000000000000000000000000081526004016112fa9190611904565b60405180910390fd5b50505050565b60405180606001604052805f81526020015f67ffffffffffffffff168152602001611332611338565b81525090565b60405180604001604052805f81526020015f81525090565b5f604051905090565b5f5ffd5b5f5ffd5b5f5ffd5b5f6060828403121561137a57611379611361565b5b81905092915050565b5f819050919050565b61139581611383565b811461139f575f5ffd5b50565b5f813590506113b08161138c565b92915050565b5f5ffd5b5f5ffd5b5f5ffd5b5f5f83601f8401126113d7576113d66113b6565b5b8235905067ffffffffffffffff8111156113f4576113f36113ba565b5b6020830191508360018202830111156114105761140f6113be565b5b9250929050565b5f73ffffffffffffffffffffffffffffffffffffffff82169050919050565b5f61144082611417565b9050919050565b61145081611436565b811461145a575f5ffd5b50565b5f8135905061146b81611447565b92915050565b5f5f5f5f5f5f5f60e0888a03121561148c5761148b611359565b5b5f6114998a828b01611365565b97505060606114aa8a828b016113a2565b965050608088013567ffffffffffffffff8111156114cb576114ca61135d565b5b6114d78a828b016113c2565b955095505060a06114ea8a828b0161145d565b93505060c088013567ffffffffffffffff81111561150b5761150a61135d565b5b6115178a828b016113c2565b925092505092959891949750929550565b5f67ffffffffffffffff82169050919050565b61154481611528565b82525050565b5f60408201905061155d5f83018561153b565b61156a602083018461153b565b9392505050565b5f5ffd5b5f601f19601f8301169050919050565b7f4e487b71000000000000000000000000000000000000000000000000000000005f52604160045260245ffd5b6115bb82611575565b810181811067ffffffffffffffff821117156115da576115d9611585565b5b80604052505050565b5f6115ec611350565b90506115f882826115b2565b919050565b5f67ffffffffffffffff82111561161757611616611585565b5b61162082611575565b9050602081019050919050565b828183375f83830152505050565b5f61164d611648846115fd565b6115e3565b90508281526020810184848401111561166957611668611571565b5b61167484828561162d565b509392505050565b5f82601f8301126116905761168f6113b6565b5b81356116a084826020860161163b565b91505092915050565b5f602082840312156116be576116bd611359565b5b5f82013567ffffffffffffffff8111156116db576116da61135d565b5b6116e78482850161167c565b91505092915050565b5f63ffffffff82169050919050565b611708816116f0565b8114611712575f5ffd5b50565b5f81359050611723816116ff565b92915050565b5f5f6040838503121561173f5761173e611359565b5b5f61174c85828601611715565b925050602061175d858286016113a2565b9150509250929050565b5f5f5f6040848603121561177e5761177d611359565b5b5f61178b86828701611715565b935050602084013567ffffffffffffffff8111156117ac576117ab61135d565b5b6117b8868287016113c2565b92509250509250925092565b5f819050919050565b5f6117e76117e26117dd84611417565b6117c4565b611417565b9050919050565b5f6117f8826117cd565b9050919050565b5f611809826117ee565b9050919050565b611819816117ff565b82525050565b5f6020820190506118325f830184611810565b92915050565b5f60208201905061184b5f83018461153b565b92915050565b5f5f5f5f60a0858703121561186957611868611359565b5b5f61187687828801611365565b945050606085013567ffffffffffffffff8111156118975761189661135d565b5b6118a3878288016113c2565b935093505060806118b68782880161145d565b91505092959194509250565b5f8115159050919050565b6118d6816118c2565b82525050565b5f6020820190506118ef5f8301846118cd565b92915050565b6118fe81611436565b82525050565b5f6020820190506119175f8301846118f5565b92915050565b5f6020828403121561193257611931611359565b5b5f61193f84828501611715565b91505092915050565b61195181611383565b82525050565b5f60208201905061196a5f830184611948565b92915050565b5f6020828403121561198557611984611359565b5b5f6119928482850161145d565b91505092915050565b5f81519050919050565b5f82825260208201905092915050565b8281835e5f83830152505050565b5f6119cd8261199b565b6119d781856119a5565b93506119e78185602086016119b5565b6119f081611575565b840191505092915050565b5f819050919050565b611a0d816119fb565b82525050565b5f608082019050611a265f830187611948565b8181036020830152611a3881866119c3565b9050611a476040830185611a04565b611a546060830184611a04565b95945050505050565b5f60608284031215611a7257611a71611359565b5b5f611a7f84828501611365565b91505092915050565b611a91816116f0565b82525050565b5f604082019050611aaa5f830185611a88565b611ab76020830184611948565b9392505050565b7f4964656e7469747920616c7265616479206578697374730000000000000000005f82015250565b5f611af26017836119a5565b9150611afd82611abe565b602082019050919050565b5f6020820190508181035f830152611b1f81611ae6565b9050919050565b5f819050919050565b611b40611b3b826119fb565b611b26565b82525050565b5f8160601b9050919050565b5f611b5c82611b46565b9050919050565b5f611b6d82611b52565b9050919050565b611b85611b8082611436565b611b63565b82525050565b5f81905092915050565b5f611b9f8261199b565b611ba98185611b8b565b9350611bb98185602086016119b5565b80840191505092915050565b5f611bd08286611b2f565b602082019150611be08285611b74565b601482019150611bf08284611b95565b9150819050949350505050565b7f4e487b71000000000000000000000000000000000000000000000000000000005f52602260045260245ffd5b5f6002820490506001821680611c4157607f821691505b602082108103611c5457611c53611bfd565b5b50919050565b5f819050815f5260205f209050919050565b5f6020601f8301049050919050565b5f82821b905092915050565b5f60088302611cb67fffffffffffffffffffffffffffffffffffffffffffffffffffffffffffffffff82611c7b565b611cc08683611c7b565b95508019841693508086168417925050509392505050565b5f611cf2611ced611ce8846119fb565b6117c4565b6119fb565b9050919050565b5f819050919050565b611d0b83611cd8565b611d1f611d1782611cf9565b848454611c87565b825550505050565b5f5f905090565b611d36611d27565b611d41818484611d02565b505050565b5b81811015611d6457611d595f82611d2e565b600181019050611d47565b5050565b601f821115611da957611d7a81611c5a565b611d8384611c6c565b81016020851015611d92578190505b611da6611d9e85611c6c565b830182611d46565b50505b505050565b5f82821c905092915050565b5f611dc95f1984600802611dae565b1980831691505092915050565b5f611de18383611dba565b9150826002028217905092915050565b611dfa8261199b565b67ffffffffffffffff811115611e1357611e12611585565b5b611e1d8254611c2a565b611e28828285611d68565b5f60209050601f831160018114611e59575f8415611e47578287015190505b611e518582611dd6565b865550611eb8565b601f198416611e6786611c5a565b5f5b82811015611e8e57848901518255600182019150602085019450602081019050611e69565b86831015611eab5784890151611ea7601f891682611dba565b8355505b6001600288020188555050505b505050505050565b7f4e6f206964656e7469747920666f756e640000000000000000000000000000005f82015250565b5f611ef46011836119a5565b9150611eff82611ec0565b602082019050919050565b5f6020820190508181035f830152611f2181611ee8565b9050919050565b7f4e487b71000000000000000000000000000000000000000000000000000000005f52601160045260245ffd5b5f611f5f826119fb565b9150611f6a836119fb565b9250828201905080821115611f8257611f81611f28565b5b92915050565b7f4c6f63616c20416374696f6e00000000000000000000000000000000000000005f82015250565b5f611fbc600c836119a5565b9150611fc782611f88565b602082019050919050565b5f604082019050611fe55f830184611a04565b8181036020830152611ff681611fb0565b905092915050565b5f6040820190506120115f8301856118f5565b61201e6020830184611a04565b9392505050565b5f6020820190506120385f830184611a88565b92915050565b5f61204882611417565b9050919050565b6120588161203e565b8114612062575f5ffd5b50565b5f813590506120738161204f565b92915050565b612082816119fb565b811461208c575f5ffd5b50565b5f8135905061209d81612079565b92915050565b5f5f604083850312156120b9576120b8611359565b5b5f6120c685828601612065565b92505060206120d78582860161208f565b9150509250929050565b7f5175616e74756d2053796e6300000000000000000000000000000000000000005f82015250565b5f612115600c836119a5565b9150612120826120e1565b602082019050919050565b5f60408201905061213e5f830184611a04565b818103602083015261214f81612109565b905092915050565b612160816116f0565b82525050565b61216f81611383565b82525050565b5f81519050919050565b5f82825260208201905092915050565b5f61219982612175565b6121a3818561217f565b93506121b38185602086016119b5565b6121bc81611575565b840191505092915050565b6121d0816118c2565b82525050565b5f60a083015f8301516121eb5f860182612157565b5060208301516121fe6020860182612166565b5060408301518482036040860152612216828261218f565b91505060608301518482036060860152612230828261218f565b915050608083015161224560808601826121c7565b508091505092915050565b5f6040820190508181035f83015261226881856121d6565b905061227760208301846118f5565b9392505050565b5f5ffd5b5f815190506122908161138c565b92915050565b61229f81611528565b81146122a9575f5ffd5b50565b5f815190506122ba81612296565b92915050565b5f815190506122ce81612079565b92915050565b5f604082840312156122e9576122e861227e565b5b6122f360406115e3565b90505f612302848285016122c0565b5f830152506020612315848285016122c0565b60208301525092915050565b5f608082840312156123365761233561227e565b5b61234060606115e3565b90505f61234f84828501612282565b5f830152506020612362848285016122ac565b6020830152506040612376848285016122d4565b60408301525092915050565b5f6080828403121561239757612396611359565b5b5f6123a484828501612321565b91505092915050565b5f6020820190506123c05f830184611a04565b92915050565b5f815190506123d481611447565b92915050565b5f602082840312156123ef576123ee611359565b5b5f6123fc848285016123c6565b91505092915050565b5f6060820190506124185f8301866118f5565b61242560208301856118f5565b6124326040830184611a04565b94935050505056fea26469706673582212203b4154c4c14e2f0f04a8af011bc38437cedd578c5770682a2824c7cf06ae7c3264736f6c634300081e0033","linkReferences":{}},"methodIdentifiers":{"allowInitializePath((uint32,bytes32,uint64))":"ff7bd03d","endpoint()":"5e280f11","identities(address)":"f653b81e","isComposeMsgSender((uint32,bytes32,uint64),bytes,address)":"82413eac","lzReceive((uint32,bytes32,uint64),bytes32,bytes,address,bytes)":"13137d65","mintIdentity(string)":"1c453c65","nextNonce(uint32,bytes32)":"7d25a05e","oAppVersion()":"17442b70","owner()":"8da5cb5b","peers(uint32)":"bb0b6a53","renounceOwnership()":"715018a6","setDelegate(address)":"ca5eb5e1","setPeer(uint32,bytes32)":"3400288b","train(uint32,bytes)":"4156be4f","transferOwnership(address)":"f2fde38b"},"id":41}