{"abi":[{"type":"constructor","inputs":[{"name":"_treasuryWallet","type":"address","internalType":"address"},{"name":"_seedWallet","type":"address","internalType":"address"},{"name":"_ghostProtocolWallet","type":"address","internalType":"address"}],"stateMutability":"nonpayable"},{"type":"function","name":"FOUNDERS_ALLOC","inputs":[],"outputs":[{"name":"","type":"uint256","internalType":"uint256"}],"stateMutability":"view"},{"type":"function","name":"GHOST_PROTOCOL_ALLOC","inputs":[],"outputs":[{"name":"","type":"uint256","internalType":"uint256"}],"stateMutability":"view"},{"type":"function","name":"PUBLIC_LIQUIDITY_ALLOC","inputs":[],"outputs":[{"name":"","type":"uint256","internalType":"uint256"}],"stateMutability":"view"},{"type":"function","name":"SEED_ALLOC","inputs":[],"outputs":[{"name":"","type":"uint256","internalType":"uint256"}],"stateMutability":"view"},{"type":"function","name":"TOTAL_SUPPLY","inputs":[],"outputs":[{"name":"","type":"uint256","internalType":"uint256"}],"stateMutability":"view"},{"type":"function","name":"TREASURY_ALLOC","inputs":[],"outputs":[{"name":"","type":"uint256","internalType":"uint256"}],"stateMutability":"view"},{"type":"function","name":"VESTING_DURATION","inputs":[],"outputs":[{"name":"","type":"uint256","internalType":"uint256"}],"stateMutability":"view"},{"type":"function","name":"allowance","inputs":[{"name":"owner","type":"address","internalType":"address"},{"name":"spender","type":"address","internalType":"address"}],"outputs":[{"name":"","type":"uint256","internalType":"uint256"}],"stateMutability":"view"},{"type":"function","name":"approve","inputs":[{"name":"spender","type":"address","internalType":"address"},{"name":"value","type":"uint256","internalType":"uint256"}],"outputs":[{"name":"","type":"bool","internalType":"bool"}],"stateMutability":"nonpayable"},{"type":"function","name":"balanceOf","inputs":[{"name":"account","type":"address","internalType":"address"}],"outputs":[{"name":"","type":"uint256","internalType":"uint256"}],"stateMutability":"view"},{"type":"function","name":"burn","inputs":[{"name":"value","type":"uint256","internalType":"uint256"}],"outputs":[],"stateMutability":"nonpayable"},{"type":"function","name":"burnFrom","inputs":[{"name":"account","type":"address","internalType":"address"},{"name":"value","type":"uint256","internalType":"uint256"}],"outputs":[],"stateMutability":"nonpayable"},{"type":"function","name":"decimals","inputs":[],"outputs":[{"name":"","type":"uint8","internalType":"uint8"}],"stateMutability":"view"},{"type":"function","name":"foundersReleased","inputs":[],"outputs":[{"name":"","type":"uint256","internalType":"uint256"}],"stateMutability":"view"},{"type":"function","name":"getLockedFounderAmount","inputs":[],"outputs":[{"name":"","type":"uint256","internalType":"uint256"}],"stateMutability":"view"},{"type":"function","name":"name","inputs":[],"outputs":[{"name":"","type":"string","internalType":"string"}],"stateMutability":"view"},{"type":"function","name":"owner","inputs":[],"outputs":[{"name":"","type":"address","internalType":"address"}],"stateMutability":"view"},{"type":"function","name":"releaseFounderTokens","inputs":[],"outputs":[],"stateMutability":"nonpayable"},{"type":"function","name":"renounceOwnership","inputs":[],"outputs":[],"stateMutability":"nonpayable"},{"type":"function","name":"symbol","inputs":[],"outputs":[{"name":"","type":"string","internalType":"string"}],"stateMutability":"view"},{"type":"function","name":"totalSupply","inputs":[],"outputs":[{"name":"","type":"uint256","internalType":"uint256"}],"stateMutability":"view"},{"type":"function","name":"transfer","inputs":[{"name":"to","type":"address","internalType":"address"},{"name":"value","type":"uint256","internalType":"uint256"}],"outputs":[{"name":"","type":"bool","internalType":"bool"}],"stateMutability":"nonpayable"},{"type":"function","name":"transferFrom","inputs":[{"name":"from","type":"address","internalType":"address"},{"name":"to","type":"address","internalType":"address"},{"name":"value","type":"uint256","internalType":"uint256"}],"outputs":[{"name":"","type":"bool","internalType":"bool"}],"stateMutability":"nonpayable"},{"type":"function","name":"transferOwnership","inputs":[{"name":"newOwner","type":"address","internalType":"address"}],"outputs":[],"stateMutability":"nonpayable"},{"type":"function","name":"vestingStartTime","inputs":[],"outputs":[{"name":"","type":"uint256","internalType":"uint256"}],"stateMutability":"view"},{"type":"event","name":"Approval","inputs":[{"name":"owner","type":"address","indexed":true,"internalType":"address"},{"name":"spender","type":"address","indexed":true,"internalType":"address"},{"name":"value","type":"uint256","indexed":false,"internalType":"uint256"}],"anonymous":false},{"type":"event","name":"FounderTokensReleased","inputs":[{"name":"amount","type":"uint256","indexed":false,"internalType":"uint256"},{"name":"timestamp","type":"uint256","indexed":false,"internalType":"uint256"}],"anonymous":false},{"type":"event","name":"GhostFundInitialized","inputs":[{"name":"ghostAddress","type":"address","indexed":true,"internalType":"address"},{"name":"amount","type":"uint256","indexed":false,"internalType":"uint256"}],"anonymous":false},{"type":"event","name":"OwnershipTransferred","inputs":[{"name":"previousOwner","type":"address","indexed":true,"internalType":"address"},{"name":"newOwner","type":"address","indexed":true,"internalType":"address"}],"anonymous":false},{"type":"event","name":"Transfer","inputs":[{"name":"from","type":"address","indexed":true,"internalType":"address"},{"name":"to","type":"address","indexed":true,"internalType":"address"},{"name":"value","type":"uint256","indexed":false,"internalType":"uint256"}],"anonymous":false},{"type":"error","name":"ERC20InsufficientAllowance","inputs":[{"name":"spender","type":"address","internalType":"address"},{"name":"allowance","type":"uint256","internalType":"uint256"},{"name":"needed","type":"uint256","internalType":"uint256"}]},{"type":"error","name":"ERC20InsufficientBalance","inputs":[{"name":"sender","type":"address","internalType":"address"},{"name":"balance","type":"uint256","internalType":"uint256"},{"name":"needed","type":"uint256","internalType":"uint256"}]},{"type":"error","name":"ERC20InvalidApprover","inputs":[{"name":"approver","type":"address","internalType":"address"}]},{"type":"error","name":"ERC20InvalidReceiver","inputs":[{"name":"receiver","type":"address","internalType":"address"}]},{"type":"error","name":"ERC20InvalidSender","inputs":[{"name":"sender","type":"address","internalType":"address"}]},{"type":"error","name":"ERC20InvalidSpender","inputs":[{"name":"spender","type":"address","internalType":"address"}]},{"type":"error","name":"OwnableInvalidOwner","inputs":[{"name":"owner","type":"address","internalType":"address"}]},{"type":"error","name":"OwnableUnauthorizedAccount","inputs":[{"name":"account","type":"address","internalType":"address"}]}],"bytecode":{"object":"0x608060405234801561000f575f5ffd5b506040516124353803806124358339818101604052810190610031919061079b565b336040518060400160405280600781526020017f47656d696e7a69000000000000000000000000000000000000000000000000008152506040518060400160405280600481526020017f474d4e5a0000000000000000000000000000000000000000000000000000000081525081600390816100ad9190610a28565b5080600490816100bd9190610a28565b5050505f73ffffffffffffffffffffffffffffffffffffffff168173ffffffffffffffffffffffffffffffffffffffff1603610130575f6040517f1e4fbdf70000000000000000000000000000000000000000000000000000000081526004016101279190610b06565b60405180910390fd5b61013f816103d360201b60201c565b505f73ffffffffffffffffffffffffffffffffffffffff168373ffffffffffffffffffffffffffffffffffffffff16036101ae576040517f08c379a00000000000000000000000000000000000000000000000000000000081526004016101a590610b79565b60405180910390fd5b5f73ffffffffffffffffffffffffffffffffffffffff168273ffffffffffffffffffffffffffffffffffffffff160361021c576040517f08c379a000000000000000000000000000000000000000000000000000000000815260040161021390610be1565b60405180910390fd5b5f73ffffffffffffffffffffffffffffffffffffffff168173ffffffffffffffffffffffffffffffffffffffff160361028a576040517f08c379a000000000000000000000000000000000000000000000000000000000815260040161028190610c49565b60405180910390fd5b426006819055506102ac336a1d3e6706dd2a7b7700000061049660201b60201c565b6102c7836a14e36e1f8fc06a2694000061049660201b60201c565b6102e2826a085af8d96cb35da908000061049660201b60201c565b6102fd816a085af8d96cb35da908000061049660201b60201c565b8073ffffffffffffffffffffffffffffffffffffffff167fece3e05c274fa5e85d21d63817ec243039aaba1fc7e0e7af9e47da152e6e8dd06a085af8d96cb35da908000060405161034e9190610c76565b60405180910390a2610371306a10b5f1b2d966bb5210000061049660201b60201c565b6a538db88c1fb85c41b4000061038b61051b60201b60201c565b146103cb576040517f08c379a00000000000000000000000000000000000000000000000000000000081526004016103c290610cd9565b60405180910390fd5b505050610d8c565b5f60055f9054906101000a900473ffffffffffffffffffffffffffffffffffffffff1690508160055f6101000a81548173ffffffffffffffffffffffffffffffffffffffff021916908373ffffffffffffffffffffffffffffffffffffffff1602179055508173ffffffffffffffffffffffffffffffffffffffff168173ffffffffffffffffffffffffffffffffffffffff167f8be0079c531659141344cd1fd0a4f28419497f9722a3daafe3b4186f6b6457e060405160405180910390a35050565b5f73ffffffffffffffffffffffffffffffffffffffff168273ffffffffffffffffffffffffffffffffffffffff1603610506575f6040517fec442f050000000000000000000000000000000000000000000000000000000081526004016104fd9190610b06565b60405180910390fd5b6105175f838361052460201b60201c565b5050565b5f600254905090565b5f73ffffffffffffffffffffffffffffffffffffffff168373ffffffffffffffffffffffffffffffffffffffff1603610574578060025f8282546105689190610d24565b92505081905550610642565b5f5f5f8573ffffffffffffffffffffffffffffffffffffffff1673ffffffffffffffffffffffffffffffffffffffff1681526020019081526020015f20549050818110156105fd578381836040517fe450d38c0000000000000000000000000000000000000000000000000000000081526004016105f493929190610d57565b60405180910390fd5b8181035f5f8673ffffffffffffffffffffffffffffffffffffffff1673ffffffffffffffffffffffffffffffffffffffff1681526020019081526020015f2081905550505b5f73ffffffffffffffffffffffffffffffffffffffff168273ffffffffffffffffffffffffffffffffffffffff1603610689578060025f82825403925050819055506106d3565b805f5f8473ffffffffffffffffffffffffffffffffffffffff1673ffffffffffffffffffffffffffffffffffffffff1681526020019081526020015f205f82825401925050819055505b8173ffffffffffffffffffffffffffffffffffffffff168373ffffffffffffffffffffffffffffffffffffffff167fddf252ad1be2c89b69c2b068fc378daa952ba7f163c4a11628f55a4df523b3ef836040516107309190610c76565b60405180910390a3505050565b5f5ffd5b5f73ffffffffffffffffffffffffffffffffffffffff82169050919050565b5f61076a82610741565b9050919050565b61077a81610760565b8114610784575f5ffd5b50565b5f8151905061079581610771565b92915050565b5f5f5f606084860312156107b2576107b161073d565b5b5f6107bf86828701610787565b93505060206107d086828701610787565b92505060406107e186828701610787565b9150509250925092565b5f81519050919050565b7f4e487b71000000000000000000000000000000000000000000000000000000005f52604160045260245ffd5b7f4e487b71000000000000000000000000000000000000000000000000000000005f52602260045260245ffd5b5f600282049050600182168061086657607f821691505b60208210810361087957610878610822565b5b50919050565b5f819050815f5260205f209050919050565b5f6020601f8301049050919050565b5f82821b905092915050565b5f600883026108db7fffffffffffffffffffffffffffffffffffffffffffffffffffffffffffffffff826108a0565b6108e586836108a0565b95508019841693508086168417925050509392505050565b5f819050919050565b5f819050919050565b5f61092961092461091f846108fd565b610906565b6108fd565b9050919050565b5f819050919050565b6109428361090f565b61095661094e82610930565b8484546108ac565b825550505050565b5f5f905090565b61096d61095e565b610978818484610939565b505050565b5b8181101561099b576109905f82610965565b60018101905061097e565b5050565b601f8211156109e0576109b18161087f565b6109ba84610891565b810160208510156109c9578190505b6109dd6109d585610891565b83018261097d565b50505b505050565b5f82821c905092915050565b5f610a005f19846008026109e5565b1980831691505092915050565b5f610a1883836109f1565b9150826002028217905092915050565b610a31826107eb565b67ffffffffffffffff811115610a4a57610a496107f5565b5b610a54825461084f565b610a5f82828561099f565b5f60209050601f831160018114610a90575f8415610a7e578287015190505b610a888582610a0d565b865550610aef565b601f198416610a9e8661087f565b5f5b82811015610ac557848901518255600182019150602085019450602081019050610aa0565b86831015610ae25784890151610ade601f8916826109f1565b8355505b6001600288020188555050505b505050505050565b610b0081610760565b82525050565b5f602082019050610b195f830184610af7565b92915050565b5f82825260208201905092915050565b7f54726561737572792061646472657373207a65726f00000000000000000000005f82015250565b5f610b63601583610b1f565b9150610b6e82610b2f565b602082019050919050565b5f6020820190508181035f830152610b9081610b57565b9050919050565b7f536565642061646472657373207a65726f0000000000000000000000000000005f82015250565b5f610bcb601183610b1f565b9150610bd682610b97565b602082019050919050565b5f6020820190508181035f830152610bf881610bbf565b9050919050565b7f47686f73742061646472657373207a65726f00000000000000000000000000005f82015250565b5f610c33601283610b1f565b9150610c3e82610bff565b602082019050919050565b5f6020820190508181035f830152610c6081610c27565b9050919050565b610c70816108fd565b82525050565b5f602082019050610c895f830184610c67565b92915050565b7f457272657572206465206d617468656d61746971756520636f736d69717565005f82015250565b5f610cc3601f83610b1f565b9150610cce82610c8f565b602082019050919050565b5f6020820190508181035f830152610cf081610cb7565b9050919050565b7f4e487b71000000000000000000000000000000000000000000000000000000005f52601160045260245ffd5b5f610d2e826108fd565b9150610d39836108fd565b9250828201905080821115610d5157610d50610cf7565b5b92915050565b5f606082019050610d6a5f830186610af7565b610d776020830185610c67565b610d846040830184610c67565b949350505050565b61169c80610d995f395ff3fe608060405234801561000f575f5ffd5b5060043610610171575f3560e01c8063715018a6116100dc57806395d89b4111610095578063dd62ed3e1161006f578063dd62ed3e14610407578063debcceb114610437578063ef7d023314610455578063f2fde38b1461047357610171565b806395d89b411461039b578063a8660a78146103b9578063a9059cbb146103d757610171565b8063715018a61461031157806379cc67901461031b578063846245231461033757806389b68f40146103555780638da5cb5b1461035f578063902d55a51461037d57610171565b806342966c681161012e57806342966c681461024d5780634cfc4d3014610269578063568d1dfe14610287578063616e68fd146102a557806363a5ef7d146102c357806370a08231146102e157610171565b806306fdde0314610175578063095ea7b31461019357806318160ddd146101c357806323b872dd146101e1578063256dfdbc14610211578063313ce5671461022f575b5f5ffd5b61017d61048f565b60405161018a9190611164565b60405180910390f35b6101ad60048036038101906101a89190611215565b61051f565b6040516101ba919061126d565b60405180910390f35b6101cb610541565b6040516101d89190611295565b60405180910390f35b6101fb60048036038101906101f691906112ae565b61054a565b604051610208919061126d565b60405180910390f35b610219610578565b6040516102269190611295565b60405180910390f35b610237610587565b6040516102449190611319565b60405180910390f35b61026760048036038101906102629190611332565b61058f565b005b6102716105a3565b60405161027e9190611295565b60405180910390f35b61028f6105ab565b60405161029c9190611295565b60405180910390f35b6102ad6105ba565b6040516102ba9190611295565b60405180910390f35b6102cb6105c9565b6040516102d89190611295565b60405180910390f35b6102fb60048036038101906102f6919061135d565b6105d8565b6040516103089190611295565b60405180910390f35b61031961061d565b005b61033560048036038101906103309190611215565b610630565b005b61033f610650565b60405161034c9190611295565b60405180910390f35b61035d61065f565b005b610367610713565b6040516103749190611397565b60405180910390f35b61038561073b565b6040516103929190611295565b60405180910390f35b6103a361074a565b6040516103b09190611164565b60405180910390f35b6103c16107da565b6040516103ce9190611295565b60405180910390f35b6103f160048036038101906103ec9190611215565b6107e0565b6040516103fe919061126d565b60405180910390f35b610421600480360381019061041c91906113b0565b610802565b60405161042e9190611295565b60405180910390f35b61043f610884565b60405161044c9190611295565b60405180910390f35b61045d61088a565b60405161046a9190611295565b60405180910390f35b61048d6004803603810190610488919061135d565b610899565b005b60606003805461049e9061141b565b80601f01602080910402602001604051908101604052809291908181526020018280546104ca9061141b565b80156105155780601f106104ec57610100808354040283529160200191610515565b820191905f5260205f20905b8154815290600101906020018083116104f857829003601f168201915b5050505050905090565b5f5f61052961091d565b9050610536818585610924565b600191505092915050565b5f600254905090565b5f5f61055461091d565b9050610561858285610936565b61056c8585856109c9565b60019150509392505050565b6a14e36e1f8fc06a2694000081565b5f6012905090565b6105a061059a61091d565b82610ab9565b50565b6303c2670081565b6a085af8d96cb35da908000081565b6a085af8d96cb35da908000081565b5f6105d3306105d8565b905090565b5f5f5f8373ffffffffffffffffffffffffffffffffffffffff1673ffffffffffffffffffffffffffffffffffffffff1681526020019081526020015f20549050919050565b610625610b38565b61062e5f610bbf565b565b6106428261063c61091d565b83610936565b61064c8282610ab9565b5050565b6a1d3e6706dd2a7b7700000081565b610667610b38565b5f610670610c82565b90505f81116106b4576040517f08c379a00000000000000000000000000000000000000000000000000000000081526004016106ab906114bb565b60405180910390fd5b8060075f8282546106c59190611506565b925050819055506106d73033836109c9565b7f1bdeb18a885c3953e4722b54c55e40175dbadfcce0c70f7ff169637ec25526738142604051610708929190611539565b60405180910390a150565b5f60055f9054906101000a900473ffffffffffffffffffffffffffffffffffffffff16905090565b6a538db88c1fb85c41b4000081565b6060600480546107599061141b565b80601f01602080910402602001604051908101604052809291908181526020018280546107859061141b565b80156107d05780601f106107a7576101008083540402835291602001916107d0565b820191905f5260205f20905b8154815290600101906020018083116107b357829003601f168201915b5050505050905090565b60065481565b5f5f6107ea61091d565b90506107f78185856109c9565b600191505092915050565b5f60015f8473ffffffffffffffffffffffffffffffffffffffff1673ffffffffffffffffffffffffffffffffffffffff1681526020019081526020015f205f8373ffffffffffffffffffffffffffffffffffffffff1673ffffffffffffffffffffffffffffffffffffffff1681526020019081526020015f2054905092915050565b60075481565b6a10b5f1b2d966bb5210000081565b6108a1610b38565b5f73ffffffffffffffffffffffffffffffffffffffff168173ffffffffffffffffffffffffffffffffffffffff1603610911575f6040517f1e4fbdf70000000000000000000000000000000000000000000000000000000081526004016109089190611397565b60405180910390fd5b61091a81610bbf565b50565b5f33905090565b6109318383836001610d0c565b505050565b5f6109418484610802565b90507fffffffffffffffffffffffffffffffffffffffffffffffffffffffffffffffff8110156109c357818110156109b4578281836040517ffb8f41b20000000000000000000000000000000000000000000000000000000081526004016109ab93929190611560565b60405180910390fd5b6109c284848484035f610d0c565b5b50505050565b5f73ffffffffffffffffffffffffffffffffffffffff168373ffffffffffffffffffffffffffffffffffffffff1603610a39575f6040517f96c6fd1e000000000000000000000000000000000000000000000000000000008152600401610a309190611397565b60405180910390fd5b5f73ffffffffffffffffffffffffffffffffffffffff168273ffffffffffffffffffffffffffffffffffffffff1603610aa9575f6040517fec442f05000000000000000000000000000000000000000000000000000000008152600401610aa09190611397565b60405180910390fd5b610ab4838383610edb565b505050565b5f73ffffffffffffffffffffffffffffffffffffffff168273ffffffffffffffffffffffffffffffffffffffff1603610b29575f6040517f96c6fd1e000000000000000000000000000000000000000000000000000000008152600401610b209190611397565b60405180910390fd5b610b34825f83610edb565b5050565b610b4061091d565b73ffffffffffffffffffffffffffffffffffffffff16610b5e610713565b73ffffffffffffffffffffffffffffffffffffffff1614610bbd57610b8161091d565b6040517f118cdaa7000000000000000000000000000000000000000000000000000000008152600401610bb49190611397565b60405180910390fd5b565b5f60055f9054906101000a900473ffffffffffffffffffffffffffffffffffffffff1690508160055f6101000a81548173ffffffffffffffffffffffffffffffffffffffff021916908373ffffffffffffffffffffffffffffffffffffffff1602179055508173ffffffffffffffffffffffffffffffffffffffff168173ffffffffffffffffffffffffffffffffffffffff167f8be0079c531659141344cd1fd0a4f28419497f9722a3daafe3b4186f6b6457e060405160405180910390a35050565b5f600654421015610c95575f9050610d09565b5f6a10b5f1b2d966bb5210000090505f60065442610cb39190611595565b90506303c267008110610cd75760075482610cce9190611595565b92505050610d09565b5f6303c267008284610ce991906115c8565b610cf39190611636565b905060075481610d039190611595565b93505050505b90565b5f73ffffffffffffffffffffffffffffffffffffffff168473ffffffffffffffffffffffffffffffffffffffff1603610d7c575f6040517fe602df05000000000000000000000000000000000000000000000000000000008152600401610d739190611397565b60405180910390fd5b5f73ffffffffffffffffffffffffffffffffffffffff168373ffffffffffffffffffffffffffffffffffffffff1603610dec575f6040517f94280d62000000000000000000000000000000000000000000000000000000008152600401610de39190611397565b60405180910390fd5b8160015f8673ffffffffffffffffffffffffffffffffffffffff1673ffffffffffffffffffffffffffffffffffffffff1681526020019081526020015f205f8573ffffffffffffffffffffffffffffffffffffffff1673ffffffffffffffffffffffffffffffffffffffff1681526020019081526020015f20819055508015610ed5578273ffffffffffffffffffffffffffffffffffffffff168473ffffffffffffffffffffffffffffffffffffffff167f8c5be1e5ebec7d5bd14f71427d1e84f3dd0314c0f7b2291e5b200ac8c7c3b92584604051610ecc9190611295565b60405180910390a35b50505050565b5f73ffffffffffffffffffffffffffffffffffffffff168373ffffffffffffffffffffffffffffffffffffffff1603610f2b578060025f828254610f1f9190611506565b92505081905550610ff9565b5f5f5f8573ffffffffffffffffffffffffffffffffffffffff1673ffffffffffffffffffffffffffffffffffffffff1681526020019081526020015f2054905081811015610fb4578381836040517fe450d38c000000000000000000000000000000000000000000000000000000008152600401610fab93929190611560565b60405180910390fd5b8181035f5f8673ffffffffffffffffffffffffffffffffffffffff1673ffffffffffffffffffffffffffffffffffffffff1681526020019081526020015f2081905550505b5f73ffffffffffffffffffffffffffffffffffffffff168273ffffffffffffffffffffffffffffffffffffffff1603611040578060025f828254039250508190555061108a565b805f5f8473ffffffffffffffffffffffffffffffffffffffff1673ffffffffffffffffffffffffffffffffffffffff1681526020019081526020015f205f82825401925050819055505b8173ffffffffffffffffffffffffffffffffffffffff168373ffffffffffffffffffffffffffffffffffffffff167fddf252ad1be2c89b69c2b068fc378daa952ba7f163c4a11628f55a4df523b3ef836040516110e79190611295565b60405180910390a3505050565b5f81519050919050565b5f82825260208201905092915050565b8281835e5f83830152505050565b5f601f19601f8301169050919050565b5f611136826110f4565b61114081856110fe565b935061115081856020860161110e565b6111598161111c565b840191505092915050565b5f6020820190508181035f83015261117c818461112c565b905092915050565b5f5ffd5b5f73ffffffffffffffffffffffffffffffffffffffff82169050919050565b5f6111b182611188565b9050919050565b6111c1816111a7565b81146111cb575f5ffd5b50565b5f813590506111dc816111b8565b92915050565b5f819050919050565b6111f4816111e2565b81146111fe575f5ffd5b50565b5f8135905061120f816111eb565b92915050565b5f5f6040838503121561122b5761122a611184565b5b5f611238858286016111ce565b925050602061124985828601611201565b9150509250929050565b5f8115159050919050565b61126781611253565b82525050565b5f6020820190506112805f83018461125e565b92915050565b61128f816111e2565b82525050565b5f6020820190506112a85f830184611286565b92915050565b5f5f5f606084860312156112c5576112c4611184565b5b5f6112d2868287016111ce565b93505060206112e3868287016111ce565b92505060406112f486828701611201565b9150509250925092565b5f60ff82169050919050565b611313816112fe565b82525050565b5f60208201905061132c5f83018461130a565b92915050565b5f6020828403121561134757611346611184565b5b5f61135484828501611201565b91505092915050565b5f6020828403121561137257611371611184565b5b5f61137f848285016111ce565b91505092915050565b611391816111a7565b82525050565b5f6020820190506113aa5f830184611388565b92915050565b5f5f604083850312156113c6576113c5611184565b5b5f6113d3858286016111ce565b92505060206113e4858286016111ce565b9150509250929050565b7f4e487b71000000000000000000000000000000000000000000000000000000005f52602260045260245ffd5b5f600282049050600182168061143257607f821691505b602082108103611445576114446113ee565b5b50919050565b7f50617320646520746f6b656e7320646973706f6e69626c657320706f7572206c5f8201527f65206d6f6d656e74000000000000000000000000000000000000000000000000602082015250565b5f6114a56028836110fe565b91506114b08261144b565b604082019050919050565b5f6020820190508181035f8301526114d281611499565b9050919050565b7f4e487b71000000000000000000000000000000000000000000000000000000005f52601160045260245ffd5b5f611510826111e2565b915061151b836111e2565b9250828201905080821115611533576115326114d9565b5b92915050565b5f60408201905061154c5f830185611286565b6115596020830184611286565b9392505050565b5f6060820190506115735f830186611388565b6115806020830185611286565b61158d6040830184611286565b949350505050565b5f61159f826111e2565b91506115aa836111e2565b92508282039050818111156115c2576115c16114d9565b5b92915050565b5f6115d2826111e2565b91506115dd836111e2565b92508282026115eb816111e2565b91508282048414831517611602576116016114d9565b5b5092915050565b7f4e487b71000000000000000000000000000000000000000000000000000000005f52601260045260245ffd5b5f611640826111e2565b915061164b836111e2565b92508261165b5761165a611609565b5b82820490509291505056fea2646970667358221220bfec1c5bd1f6c2cbe350c012db5edaac4e71916d0a3bb5fad9b979cd2f037d9364736f6c634300081e0033","linkReferences":{}},"methodIdentifiers":{"FOUNDERS_ALLOC()":"ef7d0233","GHOST_PROTOCOL_ALLOC()":"568d1dfe","PUBLIC_LIQUIDITY_ALLOC()":"84624523","SEED_ALLOC()":"616e68fd","TOTAL_SUPPLY()":"902d55a5","TREASURY_ALLOC()":"256dfdbc","VESTING_DURATION()":"4cfc4d30","allowance(address,address)":"dd62ed3e","approve(address,uint256)":"095ea7b3","balanceOf(address)":"70a08231","burn(uint256)":"42966c68","burnFrom(address,uint256)":"79cc6790","decimals()":"313ce567","foundersReleased()":"debcceb1","getLockedFounderAmount()":"63a5ef7d","name()":"06fdde03","owner()":"8da5cb5b","releaseFounderTokens()":"89b68f40","renounceOwnership()":"715018a6","symbol()":"95d89b41","totalSupply()":"18160ddd","transfer(address,uint256)":"a9059cbb","transferFrom(address,address,uint256)":"23b872dd","transferOwnership(address)":"f2fde38b","vestingStartTime()":"a8660a78"},"id":40}